:020000040801F1
:1000000050FB0020652001085925010871250108D1
:1000100089250108A1250108B92501080000000073
:10002000000000000000000000000000D1250108D1
:10003000E925010800000000D1200108012601087F
:10004000D1200108D1200108D1200108D1200108C8
:10005000D1200108D12001080D2601087D260108C4
:10006000D1200108D1200108D1200108D1200108A8
:10007000D120010871670108D1200108D1200108B1
:10008000D1200108D1200108D1200108D120010888
:10009000D1200108D1200108D1200108D120010878
:1000A000D1200108D1200108D1200108D120010868
:1000B000391F0108D1200108D1200108D1200108F1
:1000C000D1200108D1200108D1200108D120010848
:1000D000D1200108D1200108D1200108D120010838
:1000E000BD260108D1200108D1200108D120010836
:1000F000D1200108D1200108D1200108D120010818
:10010000D1200108D1200108D1200108D120010807
:10011000D1200108D1200108D1200108D1200108F7
:10012000D1200108D1200108D1200108D1200108E7
:10013000D1200108D1200108D1200108D1200108D7
:10014000D1200108D1200108D12001085D1A020840
:10015000D1200108D1200108D1200108D1200108B7
:10016000D1200108D1200108D1200108D1200108A7
:10017000D1200108451F0108D1200108D120010824
:10018000D1200108D120010810B5054C237833B9DE
:10019000044B13B10448AFF300800123237010BD5A
:1001A000500600200000000028100408084B10B57D
:1001B0001BB108480849AFF300800848036803B939
:1001C00010BD074B002BFBD0BDE81040184700BF07
:1001D00000000000281004085406002048060020F3
:1001E0000000000090B484B000AF03460A46FB71E3
:1001F0001346BB710023FB60BB7903F003039B0034
:100200000F2202FA03F3FB601649BB799B08DBB2AD
:100210001846144ABB799B08DBB2023352F82320FC
:10022000FB68DB431A40831C41F823200D48BB794F
:100230009B08DBB21C460B4ABB799B08DBB202333E
:1002400052F82320F979BB7903F003039B0001FAEC
:1002500003F31A43A31C40F823201037BD4690BC7B
:10026000704700BF0038014080B485B000AF7860AF
:100270000023FB607B68DB684FF0FF325A607B68CD
:10028000DB686FF080425A61FB7B43F08003FB73B5
:100290007B7B43F008037B737B68DB68FA689A61B9
:1002A0001437BD465DF8047B704700BF80B586B04B
:1002B00000AF78600023FB7400237B610023FB60A8
:1002C000032013F015FE7B68DB681B69FB607B690C
:1002D00001337B617B69174A934201D9002324E0F3
:1002E000FB68DB0FDBB2002BEAD000237B61FB68ED
:1002F00043F00103FB607B68DB68FA681A617B6886
:10030000DB681B69FB607B6901337B617B69094AA0
:10031000934200D905E0FB6803F00103DBB2012B37
:10032000EDD0032013F0E4FDFB7C18461837BD46E2
:1003300080BD00BF400D030080B489B000AFF860FD
:10034000B96011461A460B46FB711346BB80002369
:10035000FB76FB68DB78002B22D100237B61002336
:10036000FB61BB880333002B00DA03339B107B61F6
:10037000FB79FA6832339B0013449B683B6100238E
:10038000FB6109E0BB681A683B691A60FB690133CD
:10039000FB61BB680433BB60FA697B699A42F1D3A5
:1003A000FB7E18462437BD465DF8047B704700BFCE
:1003B00080B489B000AFF860B9601346FB800023B9
:1003C000FB61FB880333002B00DA03339B10BB6116
:1003D000FB68D3F8D0307B610023FB6109E07B69C7
:1003E0001A68BB681A60FB690133FB61BB680433A0
:1003F000BB60FA69BB699A42F1D3BB6818462437DF
:10040000BD465DF8047B704780B487B000AF78606C
:100410000B46FB7000233B610023FB737B680022CB
:10042000DA707B6801229A707B6840229A80FB78A0
:10043000012B13D14FF0A0433B617B680122DA729C
:100440007B6808221A707B6804225A707B684FF41C
:10045000A072DA807B6802221A7211E0FB78002B0E
:100460000ED1454B3B617B680022DA727B680C221F
:100470001A707B6806225A707B684FF4A062DA809B
:100480003A697B68DA603B6903F500631A467B686A
:100490001A6100237B611CE07B695A013B691344AC
:1004A00003F5106319467A687B6904339B00134493
:1004B00099607B695A013B69134403F5306319461F
:1004C0007A687B6914339B00134459607B6901335C
:1004D0007B617B685B781A467B699A42DCD83B6912
:1004E00003F580631A467B685A613B6903F58863AC
:1004F0001A467B68C3F8CC2000237B610FE07B6940
:100500005A013B69134403F5A06319467A687B6975
:1005100022339B00134499607B6901337B617B68C4
:100520001B781A467B699A42E9D800237B610FE069
:100530007B691A033B69134403F5805319467A68B3
:100540007B6932339B00134499607B6901337B6183
:100550007B681B781A467B699A42E9D83B6903F5A8
:1005600060631A467B68C3F80C21FB7B18461C3776
:10057000BD465DF8047B70470000044080B586B03E
:1005800000AF78600023FB7500233B610023FB6014
:100590000023BB607B681B7A012B42D17B68DB6840
:1005A0009B6BFB60BB7B6FF30003BB737B685B7A69
:1005B000002B03D0BB7B43F01003BB737B68DB686D
:1005C000FA689A6300233B617B68DB68DB683B6108
:1005D0003B7C6FF386133B74BB7C6FF38613BB7459
:1005E000BB7C6FF34103BB74BB7C6FF3C303BB7471
:1005F0007B68DB683A69DA607868FFF757FE7B68EA
:10060000DB78012B3DD13B7A052262F344033B7238
:100610003B7A43F020033B727B68DB68BA689A60E0
:100620002FE07B68DB68DB683B613B7C43F0400389
:100630003B747B68DB683A69DA607868FFF736FEFE
:100640000023FB60BB7B43F00103BB73BB7B43F028
:100650000403BB73BB7B43F00803BB73BB7B43F05A
:100660002003BB737B685B7A002B03D0BB7B43F01A
:100670001003BB737B68DB68FA689A63142013F07D
:100680005BFC7B68DB78012B10D17B68DB689B68A7
:10069000BB603B7A052262F344033B723B7A43F032
:1006A00020033B727B68DB68BA689A60FB7D184662
:1006B0001837BD4680BD00BF80B485B000AF7860FC
:1006C0000023FB730023BB603B7A43F001033B72C2
:1006D0007B68DB687A68D2689168BA680A439A6076
:1006E000FB7B18461437BD465DF8047B704700BF9E
:1006F00080B485B000AF78600023FB730023BB603B
:100700003B7A43F001033B727B68DB687A68D2680E
:100710009168BA68D2430A409A60FB7B1846143746
:10072000BD465DF8047B704780B586B000AF786049
:1007300039600023FB7400237B610023FB60FB68AE
:1007400043F02003FB603B68DBB203F01F03DBB226
:1007500003F01F039B01FA6822F4F8621343FB6065
:100760007B68DB68FA681A617B68DB681B69FB6081
:100770007B6901337B617B69094A934200D906E0BA
:10078000FB685B0903F00103DBB2012BECD0032013
:1007900013F0AEFBFB7C18461837BD4680BD00BF8A
:1007A000400D030080B586B000AF78600023FB7475
:1007B00000237B610023FB60FB6843F01003FB60B8
:1007C0007B68DB68FA681A617B68DB681B69FB6021
:1007D0007B6901337B617B69094A934200D906E05A
:1007E000FB681B0903F00103DBB2012BECD00320F3
:1007F00013F07EFBFB7C18461837BD4680BD00BF5A
:10080000400D030080B584B000AF78600B46FB70EC
:100810000023FB737B68DB68DB68BB60FB7A6FF3EC
:100820004513FB72FB7A6FF38613FB72FB78012B87
:1008300004D1FB7A43F02003FB7206E0FB78002B27
:1008400003D1FB7A43F04003FB727B68DB68BA6834
:10085000DA60322013F070FBFB7B18461037BD4680
:1008600080BD00BF80B483B000AF78607B68DB6878
:100870005B6903F0010318460C37BD465DF8047B45
:10088000704700BF80B582B000AF78607868FFF72E
:10089000E9FF0346012B14BF01230023DBB21846F6
:1008A0000837BD4680BD00BF80B485B000AF78601A
:1008B0000023FB607B68DB685B69FB607B68DB684F
:1008C0009B69FA681340FB60FB6818461437BD4605
:1008D0005DF8047B704700BF80B58CB000AF7860D6
:1008E000002387F82B3000237B6200233B62002328
:1008F000FB610023BB6100237B617B68D3F80C3173
:1009000000221A607B681B691B683B6297F82130E4
:100910006FF3C40387F821307B681B693A6A1A6059
:1009200078681021FFF700FF7868FFF73BFF7B68CE
:100930001B6900221A617B681B6900225A617B686F
:100940001B694FF0FF329A617B681B690022DA61F4
:100950000023FB623AE07A68FB6A04339B0013448D
:100960009B681B687B6297F8273023F07F03DBB21C
:10097000002B0ED000237B6297F8273043F0400312
:1009800087F8273097F8273043F0080387F8273097
:1009900001E000237B627A68FB6A04339B00134406
:1009A0009B687A6A1A607A68FB6A04339B00134476
:1009B0009B6800221A617A68FB6A04339B00134427
:1009C0009B68FF229A60FB6A0133FB627B685B785D
:1009D0001A46FB6A9A42BED80023FB6235E07A6869
:1009E000FB6A14339B0013445B681B68FB60FB7B52
:1009F00023F07F03DBB2002B0AD00023FB60FB7BDC
:100A000043F04003FB73FB7B43F00803FB7301E0FF
:100A10000023FB607A68FB6A14339B0013445B6815
:100A2000FA681A607A68FB6A14339B0013445B68A7
:100A300000221A617A68FB6A14339B0013445B68D6
:100A4000FF229A60FB6A0133FB627B685B781A467F
:100A5000FB6A9A42C3D800237B617B7D43F001038C
:100A60007B757B681B697A68126911697A69D24360
:100A700011407A690A431A617B68DB78012B1BD12C
:100A800000233B613B7C43F001033B743B7C43F020
:100A900002033B743B8A402262F38A033B82BB7CA5
:100AA00043F00103BB747B8A402262F349037B82DB
:100AB0007B681B693A691A63786800F007F897F851
:100AC0002B3018463037BD4680BD00BF80B584B09E
:100AD00000AF78600023FB730023BB607B68DB689A
:100AE00000229A617B68DB686FF080425A61786807
:100AF000FFF7BAFB7B68DB78002B03D13B7A43F02E
:100B000010033B727B7A43F008037B727B7A43F0DD
:100B100010037B727B7A43F020037B72BB7A43F035
:100B20000403BB72BB7A43F00803BB723B7A43F009
:100B300008033B72BB7A43F01003BB72BB7A43F0ED
:100B40002003BB727B68DB687A68D2689169BA68F7
:100B5000D2431140BA680A439A61FB7B18461037AA
:100B6000BD4680BD80B485B000AF78600023FB73C4
:100B70007B681B699B68BB603B7AC3F34103DBB2B4
:100B8000022B09D0032B04D0012B02D00323FB73CB
:100B900005E00223FB7302E00123FB7300BFFB7B34
:100BA00018461437BD465DF8047B704780B487B0A3
:100BB00000AF78600023FB750023BB607B681B6976
:100BC0009B683B617B689B691B68FB603B7CC3F354
:100BD0004103DBB2022B04D0BB896FF30A03BB8154
:100BE00005E0BB89032262F30A03BB8100BF7B6877
:100BF0009B69FA681A607B7A43F001037B727B6819
:100C00001B697A6812695168BA68D2431140BA68A0
:100C10000A435A60FB7D18461C37BD465DF8047BCD
:100C2000704700BF80B487B000AF786039600023A0
:100C3000FB740023FB600023BB603B685B78012BE7
:100C40000FD13B681B787A6804339B0013449B6880
:100C50007B613B681B781A46012393409BB23B8122
:100C60000EE03B681B787A6814339B0013445B6882
:100C70007B613B681B781A46012393409BB27B81C2
:100C80007B691B68FB607B7B23F07F03DBB2002B5F
:100C900027D13B689B689BB2C3F30A039AB2BB8916
:100CA00062F30A03BB813B68DB7803F00303DAB22B
:100CB000BB7B62F38303BB733B68DB88DBB203F06F
:100CC0000F03DAB2FB8962F38913FB81FB7B43F0EC
:100CD0001003FB737B7B43F080037B73FA687B69B3
:100CE0001A607B681B697A681269D169BA680A431D
:100CF000DA61FB7C18461C37BD465DF8047B704703
:100D000080B487B000AF786039600023FB740023A3
:100D1000FB600023BB603B685B78012B0FD13B6815
:100D20001B787A6804339B0013449B687B613B68A3
:100D30001B781A46012393409BB23B810EE03B682F
:100D40001B787A6814339B0013445B687B613B68B3
:100D50001B781A46012393409BB27B817B7B6FF308
:100D6000C7137B73FA687B691A607B681B697A68B2
:100D70001269D169BA68D2430A40DA61FB7C18462D
:100D80001C37BD465DF8047B704700BF80B588B056
:100D900000AF786039600023FB770023BB6100233C
:100DA0007B6100233B613B685B78012B40F0AB80AB
:100DB0003B681B787A6804339B0013449B681B686C
:100DC0007B613B681B787A6804339B0013449B6803
:100DD0001B693B613B685B69002B09D13B696FF381
:100DE00012033B617B8A012262F3CC037B8222E007
:100DF0003B685B69C3F312023B6962F312033B6118
:100E00003B685A693B689B6813445A1E3B689B6861
:100E1000B2FBF3F39BB2C3F309039AB27B8A62F38A
:100E2000CC037B823B68DB78012B04D1FB7C012265
:100E300062F34613FB743B681B787A6804339B00AB
:100E400013449B683A691A617B68DB78012B0AD1ED
:100E50003B681B787A6804339B0013449B683A68AC
:100E600012695A6115E03B68DB78012B11D03B68B1
:100E70005B69002B0DD03B681B781A460123934019
:100E8000BB617B681B697A681269516BBA690A4356
:100E90005A633B68DB78012B14D17B681B699B6824
:100EA000FB60FB68C3F30D239BB203F00103002B2F
:100EB00004D1FB7D43F02003FB7503E0FB7D43F091
:100EC0001003FB75FB7D43F00403FB75FB7D43F0D2
:100ED0008003FB753B681B787A6804339B001344DE
:100EE0009B687A691A603B68DB78012B40F0898047
:100EF0003B68D9683B681A783B685B699BB2786845
:100F0000FFF71AFA7DE03B681B787A6814339B0080
:100F100013445B681B687B613B681B787A681433F9
:100F20009B0013445B681B693B613B685B69002B5A
:100F30000DD13B689B68C3F312023B6962F3120355
:100F40003B617B8A012262F3CC037B8220E03B6819
:100F50005A693B689B6813445A1E3B689B68B2FB06
:100F6000F3F39BB2C3F309039AB27B8A62F3CC0317
:100F70007B827B8AC3F3C9039BB21A463B689B689A
:100F800003FB02F3C3F312023B6962F312033B61FA
:100F90003B681B787A6814339B0013445B683A699A
:100FA0001A617B68DB78012B09D13B681B787A6872
:100FB00014339B0013445B683A6812695A613B68BA
:100FC000DB78012B0CD13B685B79002B04D0FB7DD7
:100FD00043F02003FB7503E0FB7D43F01003FB753A
:100FE000FB7D43F00403FB75FB7D43F08003FB7541
:100FF0003B681B787A6814339B0013445B687A69FA
:101000001A60FB7F18462037BD4680BD80B489B08A
:1010100000AF786039600023FB770023BB610023B9
:101020003B610023BB603B685B78012B70D17B6820
:101030009B697B617B691B683B617B691B69BB604A
:101040003B685B69002B09D13B7A6FF306033B7267
:10105000BB7A012262F3C403BB7223E03B685A6986
:101060003B689B689A420ED93B689A683B685A6114
:101070003B689B68DBB203F07F03DAB23B7A62F332
:1010800006033B7209E03B685B69DBB203F07F0358
:10109000DAB23B7A62F306033B72BB7A012262F357
:1010A000C403BB72BA687B691A617B68DB78012B69
:1010B00009D13B681B787A6804339B0013449B6812
:1010C0003A6812695A61FB7C43F00403FB74FB7CB1
:1010D00043F08003FB743A697B691A607B68DB78B4
:1010E000002B76D13B685B69002B72D03B681B7884
:1010F0001A46012393401A46BB691343BB617B68C0
:101100001B697A681269516BBA690A435A6360E0D5
:101110003B681B787A6814339B0013445B681B6838
:101120003B613B681B787A6814339B0013445B680F
:101130001B69BB603B685B69002B0FD13B689B68F8
:10114000DBB203F07F03DAB23B7A62F306033B7251
:10115000BB7A012262F3C403BB7212E03B689A6857
:101160003B685A613B689B68DBB203F07F03DAB2ED
:101170003B7A62F306033B72BB7A012262F3C4033B
:10118000BB723B681B787A6814339B0013445B681E
:10119000BA681A617B68DB78012B09D13B681B7840
:1011A0007A6814339B0013445B683A6812695A6189
:1011B000FB7C43F00403FB74FB7C43F08003FB7473
:1011C0003B681B787A6814339B0013445B683A6968
:1011D0001A60FB7F18462437BD465DF8047B7047D4
:1011E00080B487B000AF786039600023FB750023BE
:1011F000FB603B685B78012B1CD13B681B787A68ED
:1012000004339B0013449B683B613B691B68FB6094
:10121000FB7B23F07F03DBB2002B03D0FB7B43F08F
:101220004003FB73BB7B43F02003BB73FA683B694D
:101230001A6011E03B681B787A6814339B001344F2
:101240005B683B613B691B68FB60BB7B43F0200331
:10125000BB73FA683B691A60FB7D18461C37BD46B4
:101260005DF8047B704700BF80B487B000AF786042
:1012700039600023FB740023FB603B685B78012B23
:1012800008D13B681B787A6804339B0013449B6841
:101290007B6107E03B681B787A6814339B0013443A
:1012A0005B687B617B691B68FB60BB7B6FF34513ED
:1012B000BB733B68DB78032B03D03B68DB78022BE6
:1012C00003D1FB7B43F01003FB73FA687B691A6060
:1012D000FB7C18461C37BD465DF8047B704700BF99
:1012E00080B485B000AF78607B681B699B69FB6048
:1012F0007B681B69DB69FA681340FB60FB681B0CA9
:1013000018461437BD465DF8047B704780B485B03D
:1013100000AF78600B46FB70FB787A6814339B0053
:1013200013445B689B68FB607B681B695B69FA68B8
:101330001340FB60FB6818461437BD465DF8047B1C
:10134000704700BF80B485B000AF78607B681B69D0
:101350009B69FB607B681B69DB69FA681340FB6073
:10136000FB689BB218461437BD465DF8047B704796
:1013700080B487B000AF786000233B61FB7C43F012
:10138000C003FB74BB7C012262F3C403BB743B7CCF
:10139000182262F306033B747B685B6D3A691A613D
:1013A0007B68DB78012B16D10023FB607B685B6DCB
:1013B0007A6802F2CC525A617B685B6D1B68FB60F5
:1013C000FB7B43F08003FB734FF08023FB607B6863
:1013D0005B6DFA681A601C37BD465DF8047B704788
:1013E00080B586B000AF02233B7200237B720123DD
:1013F000FB7240237B603B1D1A48194604F07AFAC1
:1014000080237B603B1D1748194604F073FA15488A
:101410000621032204F032FB12480721032204F0C4
:101420002DFB0220012101F07FFC41F207033B610B
:101430000023BB810023BB820023FB810A480321D8
:101440000222022312F058FE07F10C030648194647
:1014500012F082FD0448012112F0F4FD1837BD4658
:1014600080BD00BF000802400004014080B586B086
:1014700000AF02233B7200237B720123FB72102317
:101480007B603B1D1A48194604F034FA20237B6028
:101490003B1D1748194604F02DFA15480421022275
:1014A00004F0ECFA12480521022204F0E7FA0220C7
:1014B000012101F01BFC41F207033B610023BB81CA
:1014C0000023BB820023FB810A480321022202235E
:1014D00012F012FE07F10C030648194612F03CFD0B
:1014E0000448012112F0AEFD1837BD4680BD00BF93
:1014F000000402400004004080B586B000AF022323
:101500003B7200237B720123FB724FF480537B609C
:101510003B1D1B48194604F0EDF94FF400537B6066
:101520003B1D1748194604F0E5F915480C21022225
:1015300004F0A4FA12480D21022204F09FFA0420BC
:10154000012101F0D3FB41F207033B610023BB8182
:101550000023BB820023FB810A48032102220223CD
:1015600012F0CAFD07F10C030648194612F0F4FC0C
:101570000448012112F066FD1837BD4680BD00BF4A
:10158000000C02400008004080B586B000AF022386
:101590003B7200237B720123FB7201237B603B1DA6
:1015A0001A48194604F0A6F902237B603B1D174830
:1015B000194604F09FF915480021022204F05EFA52
:1015C00012480121022204F059FA0820012101F0F9
:1015D0008DFB41F207033B610023BB810023BB82EB
:1015E0000023FB810A4803210222022312F084FD1A
:1015F00007F10C030648194612F0AEFC044801211D
:1016000012F020FD1837BD4680BD00BF000002402B
:10161000000C004080B400AFBD465DF8047B70470D
:1016200080B483B000AF0346FB71FB79002B01D07F
:10163000012B00E000BF0C37BD465DF8047B70470E
:1016400080B400AFBD465DF8047B704780B400AF46
:10165000BD465DF8047B704780B400AFBD465DF8C1
:10166000047B704780B400AFBD465DF8047B7047D3
:1016700080B400AFBD465DF8047B704780B485B090
:1016800000AF78600C4BFB6006E0FB685A1EFA6006
:10169000002B01D1012309E0084B9B8A9BB21A461B
:1016A0007B681A407B689A42EFD1002318461437B2
:1016B000BD465DF8047B70470024F40000540040F0
:1016C00080B483B000AF0B4B7B6006E07B685A1E92
:1016D0007A60002B01D1012306E0074B1B8B9BB2E4
:1016E00003F00203002BF1D118460C37BD465DF81C
:1016F000047B70470024F4000054004080B586B09D
:1017000000AFC0233B6102233B7501237B7501239E
:10171000BB750123FB7507F110031848194604F047
:10172000E9F816480621042204F0A8F91348072115
:10173000042204F0A3F94FF40010012101F0D6FABD
:101740000F4810F083FC0023BB804BF6FF73FB8037
:1017500033233B814FF480637B814FF48043BB8113
:10176000084B3B600648012110F06CFD3B460448E5
:10177000194610F0A5FC1837BD4680BD0004024094
:1017800000540040A086010080B582B000AF03463F
:10179000FB710B46BB7113467B714D4B4D4A1A6072
:1017A00008E04B4B1B685A1E49490A60002B01D1C7
:1017B000012388E048484FF4003110F02FFE034623
:1017C000002BEED14448012110F05CFD404B4FF45A
:1017D000A0621A6008E03E4B1B685A1E3C490A6032
:1017E000002B01D102236EE03B483C4910F0E6FD9E
:1017F0000346002BEFD0FB7937481946002210F042
:1018000081FD334B4FF4A0621A6008E0304B1B6837
:101810005A1E2F490A60002B01D1032353E02E48A2
:101820002F4910F0CBFD0346002BEFD0BB792A489F
:10183000194610F0A5FD264B4FF4A0621A6008E08F
:10184000234B1B685A1E22490A60002B01D1042336
:1018500039E02148234910F0B1FD0346002BEFD0B9
:101860007B791D48194610F08BFD194B194A1A60F7
:1018700008E0174B1B685A1E15490A60002B01D15E
:10188000052320E01448184910F0C8FD0346002B3A
:10189000EFD01148012110F015FD0D4B4FF4A0625F
:1018A0001A6008E00A4B1B685A1E09490A60002B9F
:1018B00001D1062307E008480C4910F0AFFD0346AC
:1018C000002BEFD1002318460837BD4680BD00BF6E
:1018D0001C00002000DC0500005400400100030053
:1018E00082000700800007000400001010000010B4
:1018F00080B586B000AFBA607B600346FB730B46D1
:10190000BB73534B534A1A6008E0514B1B685A1E75
:101910004F490A60002B01D1012395E04E484FF456
:10192000003110F07BFD0346002BEED14A48012127
:1019300010F0A8FC464B4FF4A0621A6008E0444B3C
:101940001B685A1E42490A60002B01D102237BE02A
:101950004148424910F032FD0346002BEFD0FB7B9B
:101960003D481946002210F0CDFC394B4FF4A062DF
:101970001A6008E0364B1B685A1E35490A60002B76
:1019800001D1032360E03448354910F017FD0346C8
:10199000002BEFD0BB7B3048194610F0F1FC2C4BEC
:1019A0004FF4A0621A6008E0294B1B685A1E2849B0
:1019B0000A60002B01D1042346E02748294910F092
:1019C000FDFC0346002BEFD000237B611EE0BB68CB
:1019D0005A1CBA601B782048194610F0D1FC1C4BE9
:1019E0001C4A1A6008E01A4B1B685A1E18490A6004
:1019F000002B01D1052327E017481B4910F00EFDED
:101A00000346002BEFD07B6901337B617A697B68E9
:101A10009A42DCD31048012110F054FC0C4B4FF4D7
:101A2000A0621A6008E00A4B1B685A1E08490A6047
:101A3000002B01D1062307E007480C4910F0EEFC0B
:101A40000346002BEFD1002318461837BD4680BD52
:101A50001C00002000DC05000054004001000300D1
:101A60008200070080000700040000101000001032
:101A700080B582B000AF03463A60FB710B46BB7184
:101A8000714B724A1A6008E06F4B1B685A1E6E4910
:101A90000A60002B01D10123D1E06D484FF40031E1
:101AA00010F0BCFC0346002BEED16948012110F078
:101AB000E9FB654B4FF4A0621A6008E0624B1B68BB
:101AC0005A1E61490A60002B01D10223B7E0604829
:101AD000604910F073FC0346002BEFD0FB795C48A3
:101AE0001946002210F00EFC574B4FF4A0621A600A
:101AF00008E0554B1B685A1E53490A60002B01D160
:101B000003239CE05248544910F058FC0346002B34
:101B1000EFD0BB794E48194610F032FC4A4B4FF4D7
:101B2000A0621A6008E0484B1B685A1E46490A60CA
:101B3000002B01D1042382E04548484910F06EFC97
:101B40000346002BEFD04248012110F09BFB3E4B97
:101B50004FF4A0621A6008E03B4B1B685A1E3A49DA
:101B60000A60002B01D1062369E03948394910F099
:101B700025FC0346002BEFD0FB793548194601229E
:101B800010F0C0FB304B4FF4A0621A6008E02E4BFF
:101B90001B685A1E2C490A60002B01D107234EE016
:101BA0002B482F4910F03AFC0346002BEFD0284871
:101BB000002110F0C5FB264B1B8B2548012110F09E
:101BC00081FB214B4FF4A0621A6008E01E4B1B689A
:101BD0005A1E1D490A60002B01D108232FE01C4822
:101BE000204910F01BFC0346002BEFD0184810F0E2
:101BF000D7FB03461A463B681A70134B4FF4A0629A
:101C00001A600CE0104B1B685A1E0F490A60002B2B
:101C100005D10F48012110F093FB09230FE00C4B75
:101C20001B889BB203F40073002BEBD10848012101
:101C300010F086FB06480C4910F024FC00231846DF
:101C40000837BD4680BD00BF1C00002000DC050039
:101C5000005400400100030082000700040000104F
:101C600002000010400000100004001090B585B084
:101C700000AFBA607B600346FB730B46BB73814BBE
:101C8000814A1A6008E07F4B1B685A1E7D490A6032
:101C9000002B01D1012349E17C484FF4003110F0C1
:101CA000BDFB0346002BEED17848012110F0EAFA83
:101CB000744B4FF4A0621A6008E0724B1B685A1E06
:101CC00070490A60002B01D102232FE16F4870494F
:101CD00010F074FB0346002BEFD0FB7B6B481946DA
:101CE000002210F00FFB674B4FF4A0621A6008E06F
:101CF000644B1B685A1E63490A60002B01D1032301
:101D000014E16248634910F059FB0346002BEFD001
:101D1000BB7B5E48194610F033FB5A4B4FF4A06270
:101D20001A6008E0574B1B685A1E56490A60002B80
:101D300001D10423FAE05548574910F06FFB0346E0
:101D4000002BEFD05148012110F09CFA4D4B4FF47D
:101D5000A0621A6008E04B4B1B685A1E49490A6092
:101D6000002B01D10623E1E04848494910F026FB49
:101D70000346002BEFD0FB7B44481946012210F0AC
:101D8000C1FA404B4FF4A0621A6008E03D4B1B685B
:101D90005A1E3C490A60002B01D10723C6E03B488C
:101DA0003E4910F03BFB0346002BEFD07B68012B34
:101DB00002D0022B24D062E0344A344B1B889BB201
:101DC00023F480639BB21380304B1B8B2F4A2F4B25
:101DD0001B889BB243F400739BB213802B4810F016
:101DE000DFFA03461A46BB681A70FFF769FC274AF8
:101DF000264B1B889BB243F480639BB2138094E014
:101E0000224A224B1B889BB223F480639BB213802F
:101E10001E4A1E4B1B889BB243F400639BB2138087
:101E20001A4B1B8B0420FFF729FC184A174B1B8801
:101E30009BB243F400739BB213800AE0BC68631C3E
:101E4000BB60124810F0ACFA034623707B68013B7C
:101E50007B607B68002BF1D1FFF732FC0B4A0B4B08
:101E60001B889BB243F480639BB21380074A074BE5
:101E70001B889BB223F400639BB2138055E0034B95
:101E80001B8B18E01C00002000DC05000054004003
:101E9000010003008200070004000010020000108F
:101EA000BC68631CBB60234810F07AFA03462370B9
:101EB0000420FFF7E3FB7B685A1E7A60032BEFD800
:101EC0001C4A1C4B1B889BB223F480639BB213807B
:101ED000BC68631CBB60174810F062FA03462370AD
:101EE0000420FFF7CBFB134A124B1B889BB243F431
:101EF00000739BB21380BC68631CBB600D4810F07C
:101F00004FFA034623700B4810F04AFA03461A466C
:101F1000BB681A70FFF7D4FB064A064B1B889BB2BE
:101F200043F480639BB2138000BF0023184614372C
:101F3000BD4690BD0054004080B500AF03F040FBAB
:101F400080BD00BF80B400AFBD465DF8047B704724
:101F500080B485B000AF786039600023FB60002357
:101F6000BB60134B1B68FB607B6840F6FE7202FA95
:101F700003F3DB43FA681340FB603B681A683B6875
:101F80005B681A433B689B681A433B68DB681343F2
:101F9000BB607B68BA6802FA03F3FA681343FB601C
:101FA000034AFB6813601437BD465DF8047B704735
:101FB0000074004080B483B000AF78600B46FB70C3
:101FC000FB78002B09D00C490B4B1A687B68012069
:101FD00000FA03F313430B6009E00749064B1A6844
:101FE0007B68012000FA03F3DB4313400B600C37DE
:101FF000BD465DF8047B70470074004080B485B036
:1020000000AF78600B467B800023FB60074BFB60D2
:10201000FA687B6813440833FB60FB681A467B88C8
:1020200013601437BD465DF8047B704700740040B0
:1020300080B485B000AF78600B467B800023FB60E6
:10204000074BFB60FA687B6813441433FB60FB6842
:102050001A467B8813601437BD465DF8047B7047D1
:102060000074004080B582B000AF134B7B60134B0F
:102070003B6007E03B681A1D3A607A68111D796081
:1020800012681A603B680E4A9342F3D30D480E491A
:102090004FF000028842B8BF40F8042BFADBDFF8AB
:1020A0002C00016841F47001016003F08FFF00F023
:1020B000D5FC0837BD4680BD28100408000000206C
:1020C0004C0600205006002050EB002088ED00E078
:1020D00080B400AFFEE700BF80B584B000AFF86009
:1020E0007A603B600B46FB72F86811F09BFEFB6860
:1020F0003A68C3F8E425FB68BA69C3F8E825FB68C9
:102100007A68C3F8EC25FB7AF868194610F002FBF0
:10211000F86811F0D5FE1037BD4680BD80B582B09D
:1021200000AF7860786810F077FB786811F0A2FE55
:10213000002318460837BD4680BD00BF80B584B077
:1021400000AF786007F108037868194607F044FE8D
:102150003B7A03F01F03012B0AD0022B0FD0002B78
:1021600014D107F108037868194607F057FA16E00A
:1021700007F108037868194607F0A0FA0FE007F1A5
:1021800008037868194607F0CDFA08E03B7A23F097
:102190007F03DBB27868194610F056FC00BF0023BD
:1021A00018461037BD4680BD80B584B000AF78605A
:1021B0000B46FB70FB78002B44D17B6803F55D7305
:1021C000FB607B6893F81131032B4ED1FB68DA6911
:1021D000FB689B689A4220D9FB68DA69FB689B68B8
:1021E000D21AFB68DA617B68DB78012B06D1FB68C9
:1021F000DA68FB689B681A44FB68DA60FB68D96898
:10220000FB689A68FB68DB69934228BF13469BB260
:1022100078681A4611F0C2FD27E07B68D3F8E435F0
:102220001B69002B0AD07B6893F81231032B05D170
:102230007B68D3F8E4351B6978689847786811F0B3
:10224000C1FD12E07B68D3F8E4359B69002B0CD00C
:102250007B6893F81231032B07D17B68D3F8E43500
:102260009B69FA787868114698470023184610371A
:10227000BD4680BD80B584B000AF78600B46FB7072
:10228000FB78002B6CD17B6803F58E73FB607B6859
:1022900093F81131022B56D1FB68DA69FB689B6811
:1022A0009A421CD9FB68DA69FB689B68D21AFB6802
:1022B000DA617B68DB78012B06D1FB68DA68FB68A2
:1022C0009B681A44FB68DA60FB68DA68FB68DB69C4
:1022D0009BB2786811461A4611F02CFD33E0FB687A
:1022E0001B6AFA689268B3FBF2F102FB01F29B1AD7
:1022F000002B14D1FB681A6AFB689B689A420ED3C4
:10230000FB681A6AFB685B6A9A4208D27868002107
:10231000002211F00FFDFB6800225A6213E07B6877
:10232000D3F8E435DB68002B0AD07B6893F81231D0
:10233000032B05D17B68D3F8E435DB6878689847D0
:10234000786811F057FD7B6893F81631012B1AD18C
:10235000786800F01DF87B68002283F8162112E0EF
:102360007B68D3F8E4355B69002B0CD07B6893F86D
:102370001231032B07D17B68D3F8E4355B69FA7817
:10238000786811469847002318461037BD4680BD2F
:1023900080B483B000AF78607B681B69044A126820
:1023A0005A60002318460C37BD465DF8047B704721
:1023B0000411002080B582B000AF786078680021F9
:1023C0004022002310F032FA786880214022002356
:1023D00010F02CFA7B68012283F812217B68D3F875
:1023E000E8355B687A68927810469847002318466B
:1023F0000837BD4680BD00BF80B582B000AF7860B1
:102400007B68D3F8E8351B6998477B6893F81321FC
:102410007B6883F812217B68032283F81221002352
:1024200018460837BD4680BD80B582B000AF7860E1
:102430007B6893F812217B6883F813217B68042260
:1024400083F812217B68D3F8E835DB6898470023CE
:1024500018460837BD4680BD80B582B000AF7860B1
:102460007B68D3F8E435DB69002B05D07B68D3F8B3
:10247000E435DB6978689847002318460837BD467D
:1024800080BD00BF80B582B000AF78600B46FB70A6
:102490007B68D3F8E4351B68FA787868114698476A
:1024A0007B68D3F8E8359B689847002318460837BF
:1024B000BD4680BD80B582B000AF78600B46FB7032
:1024C0007B68D3F8E4355B68FA78786811469847FA
:1024D000002318460837BD4680BD00BF80B582B0D6
:1024E00000AF78607B68D3F8E4351B6A786898475A
:1024F000002318460837BD4680BD00BF80B582B0B6
:1025000000AF78607B68D3F8E4355B6A78689847F9
:10251000002318460837BD4680BD00BF80B400AF19
:10252000BFF34F8F0549054BDB6803F4E062044BB2
:102530001343CB60BFF34F8FFEE700BF00ED00E019
:102540000400FA0580B582B000AF7860FFF7E6FFBF
:102550000837BD4680BD00BF80B500AF034802F01C
:10256000C1FF0120FFF7EEFF80BD00BF58610308E7
:1025700080B500AF034802F0B5FF0220FFF7E2FF8D
:1025800080BD00BF7061030880B500AF034802F052
:10259000A9FF0320FFF7D6FF80BD00BF8C610308B1
:1025A00080B500AF034802F09DFF0420FFF7CAFF8B
:1025B00080BD00BFA861030880B500AF034802F0EA
:1025C00091FF0520FFF7BEFF80BD00BFC461030877
:1025D00080B500AF034802F085FF0620FFF7B2FF89
:1025E00080BD00BFE061030880B500AF034802F082
:1025F00079FF0720FFF7A6FF80BD00BFF861030841
:1026000080B500AF11F06CFE80BD00BF80B500AF9B
:1026100001200FF0BFFF0346002B26D0154B93F887
:102620007230DBB2022B09D11348012103F0F0F91B
:102630000346002B19D110F07DFE16E00D4B93F8E8
:102640007230DBB2002B05D00A4B93F87230DBB24C
:10265000012B0AD10848012103F0DAF90346002BC7
:1026600003D1044B012283F8712001200FF0B6FF43
:1026700080BD00BF081100200010024080B500AFEF
:1026800002200FF087FF0346002B0ED0094B93F872
:102690007230DBB2022B08D10748022103F0B8F9EF
:1026A0000346002B01D110F07DFE02200FF096FFB3
:1026B00080BD00BF081100200010024080B500AFAF
:1026C0004FF400500FF066FF4FF400500FF086FFFC
:1026D00080BD00BF80B400AFC14B002283F87020E2
:1026E000BF4B4BF680321A60BD4B002283F873203B
:1026F000BB4B002283F87420B94B002283F875206D
:10270000B74B042283F86820B54B0022DA66B44B3D
:10271000002283F87220B24B10229A71B04B102223
:102720009A71AF4B4FF07E529A60AD4B32221A61D4
:10273000AB4B032283F88320A94B09221A75A84BBF
:1027400000229A80A64B012283F88120A44B0C2200
:1027500083F88220A24B032283F87720A04B062225
:1027600083F878209E4B032283F879209C4B032228
:1027700083F87A209A4B022283F87B20984B01221F
:1027800083F87C20964B012283F87D20944B052210
:102790009A75934B002283F88820914B142283F87A
:1027A00089208F4B40F2EE22C3F88C208C4B002204
:1027B00083F890208A4B082283F89120884B4FF4AD
:1027C000E172C3F89420864B00225A75844B002294
:1027D0001A62834B00225A62814B00221A62804B9C
:1027E00000225A627E4B00229A637D4B0022DA63FC
:1027F0007B4B00225A647A4B00229A64784B002269
:1028000083F85C20764B002283F85D20744B002215
:1028100083F85E20724B00221A66714B00225A66C2
:102820006F4B00225A766E4B0022DA616C4B00220D
:1028300083F899206A4B0F2283F89A20684B93F80B
:102840009A30DBB21A46664BC3F89C20644B0022D8
:1028500083F8A620624B0C2283F8A420604B002250
:1028600083F8A7205E4B4FF07C525A655C4B0022E8
:10287000DA755B4B00221A76594B00229A65584B49
:10288000022283F89820564B002283F8AA20544B4A
:10289000012283F8AB20524B042283F8AC20504B2A
:1028A000002283F8AD204E4B012283F8AE204C4B22
:1028B00044F20822C3F8B020494B012283F8B42027
:1028C000474B0A2283F8B520454B0A2283F8B620ED
:1028D000434B002283F85E20414B0022C3F8B8200E
:1028E0003F4B0022C3F8BC203D4B002283F8C020A0
:1028F0003B4B0022C3F8C420394B0122C3F8C82047
:10290000374B012283F8CC20354B012283F8CD20B0
:10291000334B012283F8CE20314B012283F8CF20A4
:102920002F4B012283F8D0202D4B012283F8D12098
:102930002B4B012283F8D220294B012283F8D3208C
:10294000274B012283F8D420254B002283F87E20D8
:10295000234B002283F87F20214B002283F8802024
:102960001F4B002283F876201D4B0A2283F8DE20BD
:102970001B4B012283F8DF20194B002283F8A5208E
:10298000174B002283F8E020154B0022C3F8E42007
:10299000134B002283F8E820114BFF2283F8E92033
:1029A0000F4BC022C3F8EC200D4B002283F8EA2025
:1029B0000B4BC022C3F8F420094B0122C3F8F820C6
:1029C000074B0022C3F8FC20054B0022C3F800216E
:1029D000034B0022C3F80421014B002202E000BF98
:1029E0000811002083F80821134B002283F80921E5
:1029F000114B0022C3F810210F4B002283F8142141
:102A00000D4B002283F815210B4B0022C3F818212F
:102A1000094B002283F81C21074B002283F81D215B
:102A2000054B002283F81E21034B0022C3F820210E
:102A3000BD465DF8047B70470811002080B500AFEB
:102A4000044B1B689FED040A184600210FF078FA2A
:102A500080BD00BF081100200000000080B500AF5D
:102A600011F0D2F8012010F0A5FFFFF733FE1CF0A3
:102A7000E1F803461A460E4BA3F8A820642002F0A2
:102A800015F9FFF7DBFF19F0CFF919F0F7FC19F092
:102A900005FE03F001FF11F09DFB03F0FDFE044B6A
:102AA00063225A73002000F031FB11F013FCFCE7A5
:102AB0000811002080B485B000AF78603960002331
:102AC000FB600A4B9B68FB60FB6823F07843FB606C
:102AD0007A683B681343FA681343FB60034AFB6858
:102AE00093601437BD465DF8047B704700380240A0
:102AF00080B489B000AF78600023BB6100237B61A4
:102B00000023FB6102233B610023FB600223BB60C7
:102B1000464B9B6803F00C03BB61BB69042B07D0D9
:102B2000082B09D0002B3FD17B68414A1A603FE057
:102B30007B683F4A1A603BE03C4B5B6803F48003D0
:102B40009B0DFB60394B5B6803F03F03BB60FB6888
:102B5000002B0DD0364ABB68B2FBF3F2334B5968F9
:102B600047F6C0730B409B0903FB02F3FB610CE0CB
:102B70002F4ABB68B2FBF3F22C4B596847F6C0737F
:102B80000B409B0903FB02F3FB61284B5B6803F4DA
:102B900040331B0C01335B003B61FA693B69B2FBBC
:102BA000F3F27B681A6003E07B68214A1A6000BF79
:102BB0001E4B9B6803F0F003BB61BB691B09BB6143
:102BC0001C4ABB6913441B787B617B681A687B696C
:102BD000DA407B685A60154B9B6803F4E053BB6195
:102BE000BB699B0ABB61134ABB6913441B787B61B9
:102BF0007B685A687B69DA407B689A600B4B9B68FC
:102C000003F46043BB61BB695B0BBB61094ABB69F1
:102C100013441B787B617B685A687B69DA407B6868
:102C2000DA602437BD465DF8047B70470038024007
:102C30000024F4001462030880B483B000AF78600D
:102C40000B46FB70FB78002B06D00949084B1A6B2A
:102C50007B6813430B6306E00549054B1A6B7B68E1
:102C6000DB4313400B630C37BD465DF8047B7047B4
:102C70000038024080B483B000AF78600B46FB7030
:102C8000FB78002B06D00949084B5A6B7B6813432D
:102C90004B6306E00549054B5A6B7B68DB431340E9
:102CA0004B630C37BD465DF8047B7047003802402B
:102CB00080B483B000AF78600B46FB70FB78002BCC
:102CC00006D00949084B9A6B7B6813438B6306E077
:102CD0000549054B9A6B7B68DB4313408B630C37CC
:102CE000BD465DF8047B70470038024080B483B075
:102CF00000AF78600B46FB70FB78002B06D00949CB
:102D0000084B1A6C7B6813430B6406E00549054BBE
:102D10001A6C7B68DB4313400B640C37BD465DF8CF
:102D2000047B70470038024080B483B000AF786005
:102D30000B46FB70FB78002B06D00949084B5A6CF8
:102D40007B6813434B6406E00549054B5A6C7B686E
:102D5000DB4313404B640C37BD465DF8047B704782
:102D60000038024080B483B000AF78600B46FB703F
:102D7000FB78002B06D00949084B1A6A7B6813437D
:102D80000B6206E00549054B1A6A7B68DB4313407A
:102D90000B620C37BD465DF8047B7047003802407B
:102DA00080B483B000AF78600B46FB70FB78002BDB
:102DB00006D00949084B5A6A7B6813434B6206E008
:102DC0000549054B5A6A7B68DB4313404B620C375D
:102DD000BD465DF8047B70470038024080B582B084
:102DE00000AF7860396000F0F7F9786800F0C8F952
:102DF0007868396800F006F8002318460837BD46A1
:102E000080BD00BF80B582B000AF786039600F2010
:102E1000002100F08FF90346002B00D03FE0002096
:102E20001F2100F087F901201F2100F083F9002005
:102E300000F04AF90420122100F07CF9052000215D
:102E400000F078F90620622100F074F93B68002B4D
:102E500004D10720022100F06DF903E007200E21C4
:102E600000F068F97B684BF68032934203D108206A
:102E7000002100F05FF97B68B3F5FA4F03D1082019
:102E8000182100F057F97B68B3F5FA5F03D10820E9
:102E90000C2100F04FF90920012100F04BF908370F
:102EA000BD4680BD90B583B000AF474B93F87030FE
:102EB000DBB2002B11D1002000F006F9002000F059
:102EC000DFF90420122100F035F90620622100F01C
:102ED00031F93D4B01225A7672E0002000F0F4F8FF
:102EE0003A4B03F204431A68384B03F5C1631A6086
:102EF000354B93F87230DBB2022B05D0324B93F88E
:102F0000A730DBB2002B02D000F066F858E00023B7
:102F1000FB7105E0002000F0D7F8FB790133FB716D
:102F2000FB79072BF6D9002401E000BF0134284BC0
:102F30009C42FAD9244B93F89930DBB2002B38D15C
:102F4000214B93F89A30DBB2322B12D91E4B01225F
:102F500083F8A6201C4B93F89A30DBB2233B1D4A22
:102F600082FB0312DB17D31A1A46174BC3F89C20B7
:102F70000BE0154B002283F8A620134B93F89A30F0
:102F8000DBB21A46104BC3F89C200F4B93F8A630C7
:102F9000DBB2002B04D10420142100F0CBF803E0B5
:102FA0000420152100F0C6F80620612100F0C2F8C7
:102FB00006E0054B93F8A430DBB2184600F060F948
:102FC0000C37BD4690BD00BF0811002060BF002037
:102FD0003F420F005655555580B584B000AF374B72
:102FE00093F87030DBB2012B00D064E0334B9B7D53
:102FF000DBB2002B51D0314B5B6DFB6097ED037A58
:10300000D7ED037A67EE277AC7ED037AB7EE007A39
:10301000D7ED037AC7EE277AC7ED037A97ED030A57
:1030200020F082F987ED030AD7ED037AB2EE047A35
:1030300067EE877AC7ED037A204B9B7DDBB207EE04
:10304000903AF8EE677AC7ED027AD7ED027AB1EEE0
:10305000087A67EE877AC7ED027A97ED037AD7EDA3
:10306000027A77EE277AC7ED037AD7ED037A9FEDE0
:10307000147AF4EEC77AF1EE10FA02DD114BFB6020
:103080000EE0D7ED037AF5EEC07AF1EE10FA00D437
:1030900006E04FF00003FB6002E04FF00003FB602E
:1030A000D7ED037AFCEEE77AC7ED017A3B79DBB224
:1030B000184600F009F81037BD4680BD0811002001
:1030C0000000FE420000FE4280B584B000AF03461F
:1030D000FB71FB79FB60FB682F33FB60FB682E2BD9
:1030E00001D82F23FB60FB687F2B01D97F23FB6076
:1030F0000320782100F01EF8FB689BB202201946DD
:1031000000F018F81037BD4680BD00BF80B582B012
:1031100000AF0346FB71FB79002B04D0052008218A
:1031200000F008F803E00520002100F003F808375C
:10313000BD4680BD80B584B000AF03460A46FB7132
:103140001346BB80FB795B00DAB2BB881B0A9BB2DB
:10315000DBB203F00103DBB21343DBB2FB73BB88CA
:10316000BB73FA7BBB7B342011461A460FF048FD37
:1031700003467B737B7B18461037BD4680BD00BF7E
:1031800080B586B000AF78604FF400400121FFF7B2
:10319000ADFD10480EF092FC7B683B6100237B8103
:1031A0000023BB810023BB824FF400733B810023CB
:1031B000FB8107F10803074819460EF0FDFC07F1F3
:1031C00008034FF0402019460EF010FE1837BD4698
:1031D00080BD00BF003C004080B582B000AF4FF41E
:1031E000E0533B6002233B7102237B710023BB71E0
:1031F0000023FB713B462048194602F07BFB4FF44D
:1032000000433B6002233B7102237B710023BB71AF
:103210000023FB713B461948194602F06BFB4FF443
:1032200000733B6003237B7102233B710023BB715E
:103230000023FB713B461048194602F05BFB4FF040
:1032400080404FF02051FFF735FC0C480F2106223B
:1032500002F014FC08480A21062202F00FFC06487E
:103260000C21062202F00AFC03480B21062202F080
:1032700005FC0837BD4680BD000802400000024042
:1032800080B584B000AF0346FB71FB79FB81FB89FD
:1032900043F48073FB81FB8900201946FFF74AFF46
:1032A0001037BD4680BD00BF80B485B000AF7860E8
:1032B00039600023FB600023FB727B685B68FB6066
:1032C000FB6823F0407323F48073FB603B681B7939
:1032D0001A023B681B681343FA681343FB607B6860
:1032E000FA685A607B689B68FB60FA68174B13406A
:1032F000FB603B681A693B68DB681A433B689B6864
:103300001A433B685B795B001343FA681343FB6025
:103310007B68FA689A607B68DB6AFB60FB6823F471
:103320007003FB603B681B7D013BDAB2FB7A134301
:10333000FB72FB7A1B05FA681343FB607B68FA6833
:10334000DA621437BD465DF8047B7047FDF7FFC0B5
:1033500080B483B000AF78607B6800221A607B681D
:1033600000221A717B6800225A717B6800229A60E1
:103370007B680022DA607B6800221A617B68012288
:103380001A750C37BD465DF8047B704780B485B074
:1033900000AF78600023FB600E4B5B68FB60FA684F
:1033A0000D4B1340FB607B681A687B685B681A43AF
:1033B0007B689B681A437B68DB681343FA68134396
:1033C000FB60044AFB6853601437BD465DF8047B1C
:1033D000704700BF00230140E030FCFF80B483B0A1
:1033E00000AF78600B46FB70FB78002B06D07B6843
:1033F0009B6843F001027B689A6005E07B689B68EC
:1034000023F001027B689A600C37BD465DF8047BAF
:10341000704700BF80B485B000AF786008461146A1
:103420001A460346FB700B46BB7013467B700023A5
:10343000FB600023BB60FB78092B23D97B68DB682A
:10344000FB60FB78A3F10A0213465B0013440722DA
:1034500002FA03F3BB60BB68DB43FA681340FB600E
:103460007978FB78A3F10A0213465B00134401FA52
:1034700003F3BB60FA68BB681343FB607B68FA68C0
:10348000DA601EE07B681B69FB60FA7813465B001C
:103490001344072202FA03F3BB60BB68DB43FA68FC
:1034A0001340FB607978FA7813465B00134401FA05
:1034B00003F3BB60FA68BB681343FB607B68FA6880
:1034C0001A61BB78062B21D87B685B6BFB60BB78ED
:1034D0005A1E13469B0013441F2202FA03F3BB60DB
:1034E000BB68DB43FA681340FB60F978BB785A1E6F
:1034F00013469B00134401FA03F3BB60FA68BB68F0
:103500001343FB607B68FA685A6347E0BB780C2B77
:1035100021D87B681B6BFB60BB78DA1F13469B00CE
:1035200013441F2202FA03F3BB60BB68DB43FA6853
:103530001340FB60F978BB78DA1F13469B001344F5
:1035400001FA03F3BB60FA68BB681343FB607B6856
:10355000FA681A6322E07B68DB6AFB60BB78A3F140
:103560000D0213469B0013441F2202FA03F3BB60B3
:10357000BB68DB43FA681340FB60F978BB78A3F1C2
:103580000D0213469B00134401FA03F3BB60FA6873
:10359000BB681343FB607B68FA68DA621437BD4688
:1035A0005DF8047B704700BF80B483B000AF7860E3
:1035B0007B689B6843F080427B689A600C37BD460D
:1035C0005DF8047B704700BF80B483B000AF7860C3
:1035D0007B68DB6C9BB218460C37BD465DF8047BFC
:1035E000704700BF80B485B000AF78600023BB6037
:1035F0000BE00023FB6002E0FB680133FB60FB682B
:103600000E2BF9D9BB680133BB60BA687B689A425C
:10361000EFD31437BD465DF8047B704780B582B0A8
:1036200000AF04233B6001233B710023BB710023E7
:10363000FB7100237B713B460448194602F05AF99E
:10364000024B04225A830837BD4680BD000C02405D
:1036500080B588B000AF4FF480400121FFF746FBF2
:1036600002233B770023BB7703237B774FF4005380
:10367000BB6107F118033048194602F03BF90823F3
:10368000BB6107F118032D48194602F033F90423F2
:10369000BB6107F118032948194602F02BF92648A7
:1036A0000D21052202F0EAF924480221052202F048
:1036B000E5F922480321052202F0E0F920480EF046
:1036C000FDF90023BB8000233B8102237B81012382
:1036D000BB814FF40073FB8108233B8200237B8274
:1036E0004FF48273FB803B1D154819460EF020FAFB
:1036F000134801210EF03AFB01233B770023BB77EF
:1037000002237B774FF48053BB6107F118030D4808
:10371000194602F0EFF80823BB6107F118030A48C5
:10372000194602F0E7F807484FF4805102F08AF991
:103730002037BD4680BD00BF0004024000080240A3
:103740000038004000100240000C024080B582B0FA
:1037500000AF164800210EF009FB14480EF0AEF938
:1037600000233B7100237B714FF400533B603B46C9
:103770000F48194602F0BEF808233B603B460D484F
:10378000194602F0B7F804233B603B460948194646
:1037900002F0B0F84FF480533B603B4606481946B0
:1037A00002F0A8F80837BD4680BD00BF00380040D1
:1037B00000040240000802400010024080B582B0C0
:1037C00000AF4CF6B3733B6002233B7103237B7164
:1037D0000023BB710023FB713B464448194602F0AD
:1037E00089F8424800210C2202F048F93F480121A3
:1037F0000C2202F043F93D4804210C2202F03EF96C
:103800003A4805210C2202F039F9384807210C22E8
:1038100002F034F9354808210C2202F02FF9334820
:1038200009210C2202F02AF930480A210C2202F068
:1038300025F92E480B210C2202F020F92B480E21ED
:103840000C2202F01BF929480F210C2202F016F974
:103850004FF680733B6002233B7103237B7100238F
:10386000BB710023FB713B462148194602F042F828
:103870001F4807210C2202F001F91D4808210C22E3
:1038800002F0FCF81A4809210C2202F0F7F8184857
:103890000A210C2202F0F2F815480B210C2202F04A
:1038A000EDF813480C210C2202F0E8F810480D2125
:1038B0000C2202F0E3F80E480E210C2202F0DEF892
:1038C0000B480F210C2202F0D9F808233B6001239A
:1038D0003B710023BB7102237B713B4603481946B1
:1038E00002F008F80837BD4680BD00BF000C02405A
:1038F0000010024080B500AF0B48082102F0A2F88A
:103900004CF25030FFF76EFE0748082102F0A8F88D
:103910004CF25030FFF766FE0348082102F092F89F
:103920000248FFF75FFE80BD000C0240A086010048
:1039300080B596B000AF01200121FFF7B9F903234C
:103940003B6000237B600923BB600023FB600023F6
:103950003B6100237B610023BB610023FB610023EB
:103960003B6200237B621023BB620023FB620023C7
:103970003B6300237B630023BB630023FB634FF4A3
:1039800080533B6400237B640023BB640023FB64FF
:103990003B463B653B467B6507F11C03184601F03F
:1039A000E5FE0020012101F07BFF5837BD4680BDB8
:1039B00080B582B000AF0346FB7100BF0D48022105
:1039C0000EF0A2FA0346002BF8D0FB799BB209480F
:1039D00019460EF067FA00BF064801210EF094FA6E
:1039E0000346002BF8D003480EF04EFA0837BD46C8
:1039F00080BD00BF0038004080B582B000AF00231A
:103A0000FB704FF480537B6006E07B685A1E7A603F
:103A1000002B01D1FF2323E0134802210EF074FA9A
:103A20000346002BF1D0FB789BB20F4819460EF0ED
:103A300039FA4FF480537B6006E07B685A1E7A6047
:103A4000002B01D1FF230BE0074801210EF05CFAA7
:103A50000346002BF1D004480EF016FA0346DBB201
:103A600018460837BD4680BD0038004080B582B09A
:103A700000AF0346FB710B484FF4805101F0F0FF9B
:103A80007020FFF795FF0020FFF792FFFB791846A3
:103A9000FFF78EFF03484FF4805101F0D3FF083742
:103AA000BD4680BD0010024080B582B000AF034625
:103AB000FB800E484FF4805101F0D2FF7220FFF7D7
:103AC00077FFFB881B0A9BB2DBB21846FFF770FF3B
:103AD000FB88DBB21846FFF76BFF04484FF48051B8
:103AE00001F0B0FF0837BD4680BD00BF00100240A6
:103AF00080B500AF7220FFF75BFF80BD80B582B05C
:103B000000AF0346FB800C4B93F8543EDBB2002B16
:103B10000CD0FB881B0A9BB2DBB21846FFF748FFAC
:103B2000FB88DBB21846FFF743FF02E0034AFB883D
:103B300013800837BD4680BD6896002000000260F3
:103B400080B582B000AF13484FF4805101F088FF78
:103B50007320FFF72DFFFFF74FFFFFF74DFF0346E1
:103B6000FB71FB79BB80BB881B02BB80FFF744FF66
:103B70000346FB70FB789AB2BB881343BB800548B1
:103B80004FF4805101F05EFFBB8818460837BD46F0
:103B900080BD00BF0010024080B582B000AF034678
:103BA0000A46FB801346BB800C4B93F8543EDBB2B5
:103BB000002B09D0FB88DBB21846FFF757FFBB8804
:103BC0001846FFF771FF06E04FF0C042FB881380F4
:103BD000034ABB8813800837BD4680BD6896002025
:103BE0000000026080B582B000AF0346FB800D4B41
:103BF00093F8543EDBB2002B08D0FB88DBB21846AA
:103C0000FFF734FFFFF79CFF034606E04FF0C0428A
:103C1000FB881380044B1B889BB218460837BD46AF
:103C200080BD00BF689600200000026080B582B0B1
:103C300000AF03460A46FB801346BB80BB882020AA
:103C40001946FFF7A9FFFB8821201946FFF7A4FFBB
:103C50000837BD4680BD00BF80B584B000AF0346C5
:103C6000FB8000200021FFF7E1FF1B4B93F8543E3F
:103C7000DBB2002B1BD02220FFF7F8FE174B4FF4CE
:103C800080525A83FFF734FF0023FB6006E0FB8875
:103C90001846FFF733FFFB680133FB60FB68B3F5A1
:103CA000C83FF4D30D4B4FF480521A8310E04FF00D
:103CB000C04322221A800023FB6005E0084AFB88EB
:103CC0001380FB680133FB60FB68B3F5C83FF5D395
:103CD0001037BD4680BD00BF68960020001002402E
:103CE0000000026080B500AF0A4B93F8543EDBB28F
:103CF000002B0AD02220FFF7B9FE07484FF480516D
:103D000001F0AEFEFFF7F4FE03E04FF0C0432222C5
:103D10001A8080BD689600200010024090B585B0E2
:103D200000AF0446084611461A462346FB80034668
:103D3000BB800B467B8013467B700023FB60FA88B8
:103D4000BB8810461946FFF771FF7B78012B1BD10A
:103D5000FFF7C8FF0023FB6006E03B8C1846FFF727
:103D6000CDFEFB680133FB607A88FB689A42F4D889
:103D7000194B93F8543EDBB2002B29D017484FF46F
:103D8000805101F05FFE23E00023FB601CE0FFF7A1
:103D9000A9FF3B8C1846FFF7B1FE0F4B93F8543E3A
:103DA000DBB2002B04D00D484FF4805101F04AFEE5
:103DB000FB880133FB80FA88BB8810461946FFF761
:103DC00035FFFB680133FB607A88FB689A42DED8D6
:103DD0001437BD4690BD00BF689600200010024019
:103DE00090B587B000AF0446084611461A462346F0
:103DF000FB800346BB800B467B8013463B80002341
:103E00007B6100233B613B88FB8100237B6144E0B5
:103E1000FA88BB8810461946FFF708FFFFF762FFD4
:103E2000FB89DB089BB2DB029AB2FB899B089BB241
:103E30005B019BB213439AB2FB89DB089BB29BB236
:103E400013439BB29BB21846FFF758FE164B93F8EC
:103E5000543EDBB2002B04D014484FF4805101F0E3
:103E6000F1FD3B6901333B613B69082B0FD17B8836
:103E70005B089BB21A467B699A4203D9FB890433DB
:103E8000FB8102E0FB89043BFB8100233B61FB8853
:103E90000133FB807B6901337B617A887B699A42BD
:103EA000B6D81C37BD4690BD689600200010024071
:103EB00090B585B002AF0446084611461A4623461F
:103EC000FB800346BB800B467B8013463B80F88813
:103ED000B9883A883B8B00930023FFF71FFFF888CF
:103EE000B9887A883B8B00930123FFF717FFFA8884
:103EF0003B88134498B27B8801339AB2B9883B8BD4
:103F000000930123FFF70AFFBA887B88134499B214
:103F1000F8883A883B8B00930023FFF7FFFE0C37AD
:103F2000BD4690BD90B585B002AF04460846114627
:103F30001A462346FB800346BB800B467B80134614
:103F40003B80F888B9883A883B8B00930023FFF7C1
:103F5000E5FEF888B9887A883B8B00930123FFF748
:103F6000DDFEFA883B88134498B2B9887A883B8B87
:103F700000930123FFF7D2FE0C37BD4690BD00BF72
:103F800090B585B002AF0446084611461A4623464E
:103F9000FB800346BB800B467B8013463B800AE0D8
:103FA000F888B9887A883B8B00930123FFF7B6FE27
:103FB000FB880133FB803B885A1E3A80002BEFD1EF
:103FC0000C37BD4690BD00BF90B589B000AF044628
:103FD000084611461A462346FB800346BB800B4623
:103FE000FB7013463B80FB88FB827B6B9B887B7559
:103FF0007B6B1A68FB78203B796BC98801FB03F364
:104000005B0013443B61FA8ABB8810461946FFF7F0
:104010000DFE0023FB6168E00023BB6151E0FFF768
:1040200061FEFB695B003A69134419887B7D334A62
:10403000A2FB0323DB08DBB2DB0080229A40BB69D2
:1040400042FA03F39BB20A4613409BB2FB81FB6921
:104050005B003A6913441988BB69012202FA03F331
:104060009BB20A4613409BB2BB81FB89002B02D155
:104070007B7D0C2B05D9BB89002B07D17B7D0C2BBD
:1040800004D93B8E1846FFF739FD03E03B881846FC
:10409000FFF734FD1A4B93F8543EDBB2002B04D0EB
:1040A00018484FF4805101F0CDFCFB8A0133FB82AC
:1040B000FA8ABB8810461946FFF7B8FDBB69013381
:1040C000BB617B6B9B881A46BB699A42A7D8BB88A9
:1040D0000133BB80FB88FB82FA8ABB8810461946F5
:1040E000FFF7A4FDFB690133FB617B6BDB881A469C
:1040F000FB699A4290D82437BD4690BDABAAAAAAC4
:10410000689600200010024090B589B002AFBA60F6
:104110001A460346FB810B46BB811346FB8097F88A
:104120002C30013B032B17D801A252F823F000BF1B
:1041300041410108474101084D410108534101082F
:104140002A4B7B610BE02A4B7B6108E0294B7B61AA
:1041500005E0294B7B6102E0284B7B6100BFBB6817
:104160005A1CBA601B78FB74F889B989FA7CFC8800
:104170003B8D00937B6901932346FFF725FFFA8966
:104180007B699B88C3F5A0739A4214DA7B699A888D
:10419000FB891344FB8197F82C30042B1ED1BB689C
:1041A0001B78392B03D9FB89013BFB8116E0FB8986
:1041B000023BFB8112E0BA897B69DB88C3F5A073FF
:1041C0009A4207DA0023FB817B69DA88BB891344B2
:1041D000BB8103E00023FB810023BB81BB681B780C
:1041E000002BBCD11C37BD4690BD00BFECA203081C
:1041F000F4A20308FCA203080CA3030804A3030809
:1042000080B58CB000AFF860B96011461A460B4615
:10421000FB801346BB800023BB613B8F002B02D089
:104220007F233B8401E001233B843B8C3E337B8531
:1042300013E2FB689A1CFA601B883B85BB689A1CDA
:10424000BA601B88FB843B8D3F2B01D93F233B8504
:10425000FB8C3F2B01D93F23FB843B8DC3F1D10362
:10426000BB843B8DFB82FB8CC3F1D1037B84FB8C35
:10427000BB823A8DFB8C9A4200D8EFE0FB88002B82
:1042800022D10023BB851CE0BB8D864A03F5E36386
:104290005B0013449B889BB27A8D9A420ED1BB8DF2
:1042A000804A03F5E3635B0013449B887B857E4B68
:1042B000D3F8B030FB830123BB6105E0BB8D013334
:1042C000BB85BB8D062BDFD9764B93F8543EDBB212
:1042D000002B68D0754B4FF480525A837020FFF743
:1042E00067FB0020FFF764FB2020FFF761FB6F4BAB
:1042F0004FF480521A836D4B4FF480525A837220D0
:10430000FFF756FBBB8C1B0A9BB2DBB21846FFF7CC
:104310004FFBBB8CDBB21846FFF74AFB634B4FF4F5
:1043200080521A83614B4FF480525A837020FFF7FA
:104330003FFB0020FFF73CFB2120FFF739FB5B4BE5
:104340004FF480521A83594B4FF480525A83722093
:10435000FFF72EFB7B8D1B0A9BB2DBB21846FFF7E3
:1043600027FB7B8DDBB21846FFF722FB4F4B4FF448
:1043700080521A834D4B4FF480525A837020FFF7BE
:1043800017FB0020FFF714FB2220FFF711FB474B20
:104390004FF480521A83454B4FF480525A83722057
:1043A000FFF706FB07E07A8DBB8C10461946FFF736
:1043B0003DFCFFF797FCFB8CFB853CE0BB69002BC9
:1043C0001DD1FB88FB83FB88002B18D10023BB8504
:1043D00012E0BB8D334A03F5E4635B0013445B8852
:1043E0009BB2BA8C9A4204D12F4BD3F8B030FB83E6
:1043F00005E0BB8D0133BB85BB8D022BE9D9294B71
:1044000093F8543EDBB2002B0CD0FB8B1B0A9BB203
:10441000DBB21846FFF7CCFAFB8BDBB21846FFF78E
:10442000C7FA02E0224AFB8B1380BB8C0133BB84AA
:10443000FB8D0133FB85FA8DFB8A9A42BED3194B63
:1044400093F8543EDBB2002B03D0184B4FF480524C
:104450001A83BB69002B01D00023BB61FB8C002BAE
:1044600000D1F7E0BB88002B2AD10023BB8524E0D4
:10447000BB8D0C4A03F5E3635B0013449B889BB23E
:104480007A8D9A4216D1BB8D064A03F5E3635B0031
:1044900013449B887B85044BD3F8B030FB83012306
:1044A000BB610DE06896002008110020001002405A
:1044B00000000260BB8D0133BB85BB8D062BD7D9B5
:1044C0006A4B93F8543EDBB2002B68D0684B4FF434
:1044D00080525A837020FFF76BFA0020FFF768FACA
:1044E0002020FFF765FA624B4FF480521A83604B2D
:1044F0004FF480525A837220FFF75AFA7B8C1B0AC2
:104500009BB2DBB21846FFF753FA7B8CDBB218463E
:10451000FFF74EFA564B4FF480521A83544B4FF428
:1045200080525A837020FFF743FA0020FFF740FAC9
:104530002120FFF73DFA4E4B4FF480521A834C4B2B
:104540004FF480525A837220FFF732FA7B8D1B0A98
:104550009BB2DBB21846FFF72BFA7B8DDBB2184615
:10456000FFF726FA424B4FF480521A83404B4FF428
:1045700080525A837020FFF71BFA0020FFF718FAC9
:104580002220FFF715FA3A4B4FF480521A83384B2A
:104590004FF480525A837220FFF70AFA07E07A8DAF
:1045A0007B8C10461946FFF741FBFFF79BFB00236E
:1045B000FB853CE0BB69002B1DD1BB88FB83BB881E
:1045C000002B18D10023BB8512E0BB8D274A03F5D1
:1045D000E4635B0013445B889BB27A8C9A4204D1FB
:1045E000244BD3F8B030FB8305E0BB8D0133BB8592
:1045F000BB8D022BE9D91D4B93F8543EDBB2002B47
:104600000CD0FB8B1B0A9BB2DBB21846FFF7D0F92C
:10461000FB8BDBB21846FFF7CBF902E0164AFB8BA7
:1046200013807B8C01337B84FB8D0133FB85FA8DFA
:10463000BB8A9A42BED30D4B93F8543EDBB2002B9B
:1046400003D00B4B4FF480521A83BB69002B01D06F
:104650000023BB617B8D01337B857A8D3B8CBC3322
:104660009A42FFF6E6AD3037BD4680BD6896002021
:1046700000100240081100200000026080B582B0E6
:1046800000AF0020FFF7AEFA0346FB80FB8804482A
:10469000194600F027FFFB88002B03D10123D2E24B
:1046A00024620308FB8849F22032934240F0FE80E6
:1046B000F84800F017FFE5204FF40041FFF76CFACF
:1046C00000200121FFF768FA01204FF48071FFF705
:1046D00063FA02204FF4E061FFF75EFA032041F233
:1046E0003001FFF759FA04200021FFF755FA08209E
:1046F00040F20221FFF750FA09200021FFF74CFA9F
:104700000A200021FFF748FA0C200021FFF744FAA5
:104710000D200021FFF740FA0F200021FFF73CFA9F
:1047200010200021FFF738FA11200021FFF734FA9A
:1047300012200021FFF730FA13200021FFF72CFA96
:10474000D548FEF74FFF102041F2B071FFF724FA71
:10475000112040F23711FFF71FFAD048FEF742FF51
:10476000122040F23911FFF717FACC48FEF73AFF52
:1047700013204FF4E851FFF70FFA29201321FFF718
:104780000BFAC648FEF72EFF20200021FFF704FA9F
:1047900021200021FFF700FA30200721FFF7FCF964
:1047A00031200721FFF7F8F932200721FFF7F4F94C
:1047B00035200721FFF7F0F936200721FFF7ECF944
:1047C00037204FF4E061FFF7E7F938204FF4E0615C
:1047D000FFF7E2F939204FF4E061FFF7DDF93C2003
:1047E0004FF4E061FFF7D8F93D204FF4F851FFF79F
:1047F000D3F950200021FFF7CFF95120EF21FFF727
:10480000CBF952200021FFF7C7F9532040F23F11A6
:10481000FFF7C2F960204FF42741FFF7BDF961208F
:104820000121FFF7B9F96A200021FFF7B5F98020CF
:104830000021FFF7B1F981200021FFF7ADF98220B7
:104840000021FFF7A9F983200021FFF7A5F98420B3
:104850000021FFF7A1F985200021FFF79DF99020A5
:104860001021FFF799F992200021FFF795F9932085
:104870000321FFF791F995204FF48871FFF78CF928
:1048800097200021FFF788F998200021FFF784F98D
:10489000032041F23001FFF77FF9072040F2731146
:1048A000FFF77AF94CF25030FEF79CFEFB8845F298
:1048B0000842934240F0AA80794800F013FE01209C
:1048C0000021FFF769F902204FF4E061FFF764F976
:1048D000032041F23001FFF75FF904200021FFF7C8
:1048E0005BF9082040F20721FFF756F90920002163
:1048F000FFF752F90A200021FFF74EF90C200021A2
:10490000FFF74AF90D200021FFF746F90F2000219B
:10491000FFF742F94CF25030FEF764FE072040F2F8
:104920000111FFF739F94CF25030FEF75BFE102011
:1049300041F2B061FFF730F911200121FFF72CF9A6
:1049400017200121FFF728F912204FF49C71FFF77F
:1049500023F913204FF40061FFF71EF929200921E4
:10496000FFF71AF92A200921FFF716F9A4200021E0
:10497000FFF712F950200021FFF70EF95120EF2127
:10498000FFF70AF952200021FFF706F9532040F201
:104990003F11FFF701F960204FF41C51FFF7FCF8BD
:1049A00061200321FFF7F8F86A200021FFF7F4F8EF
:1049B00080200021FFF7F0F881200021FFF7ECF8BC
:1049C00082200021FFF7E8F883200021FFF7E4F8B8
:1049D00084200021FFF7E0F885200021FFF7DCF8B4
:1049E00090201321FFF7D8F892200021FFF7D4F888
:1049F00093200321FFF7D0F895204FF48871FFF73B
:104A0000CBF8072040F27311FFF7C6F8FB8849F294
:104A10002532934205D0FB8849F22832934240F078
:104A20000F81204800F05EFDE7201021FFF7B4F869
:104A300000200121FFF7B0F801200021FFF7ACF8BA
:104A400002204FF4E061FFF7A7F8032041F23001A4
:104A5000FFF7A2F804200021FFF79EF8082040F29B
:104A60000721FFF799F809200021FFF795F80A20A0
:104A70000021FFF791F80C200121FFF78DF80D20A0
:104A80000021FFF789F80F200021FFF785F810209B
:104A9000002109E038620308E0930400A0860100C9
:104AA0005062030868620308FFF776F811200721B7
:104AB000FFF772F812200021FFF76EF81320002193
:104AC000FFF76AF86248FEF78DFD102041F2905121
:104AD000FFF762F8112040F22721FFF75DF85C48EC
:104AE000FEF780FD12209C21FFF756F85848FEF78C
:104AF00079FD13204FF4C851FFF74EF829202321E8
:104B0000FFF74AF82B200E21FFF746F85048FEF732
:104B100069FD20200021FFF73FF821200021FFF749
:104B20003BF84B48FEF75EFD30200721FFF734F8D5
:104B3000312040F20771FFF72FF832200621FFF7EE
:104B40002BF8352040F20471FFF726F8362041F6A5
:104B50000471FFF721F837200421FFF71DF83820F2
:104B60000021FFF719F8392040F20671FFF714F819
:104B70003C2040F20171FFF70FF83D200F21FFF7B5
:104B80000BF83348FEF72EFD50200021FFF704F804
:104B90005120EF21FFF700F852200021FEF7FCFF23
:104BA000532040F23F11FEF7F7FF60204FF42741FA
:104BB000FEF7F2FF61200121FEF7EEFF6A200021DF
:104BC000FEF7EAFF80200021FEF7E6FF81200021AA
:104BD000FEF7E2FF82200021FEF7DEFF83200021A6
:104BE000FEF7DAFF84200021FEF7D6FF85200021A2
:104BF000FEF7D2FF90201021FEF7CEFF9220002179
:104C0000FEF7CAFF93200321FEF7C6FF95204FF45D
:104C10008871FEF7C1FF97200021FEF7BDFF9820A5
:104C20000021FEF7B9FF072040F23311FEF7B4FF71
:104C300020200021FEF7B0FF21200021FEF7ACFF6D
:104C400000F008F8002318460837BD4680BD00BFB5
:104C5000A086010080B400AFBD465DF8047B7047BC
:104C600080B500AFFEF7DAFC0F4B012283F8542E1B
:104C7000FEF7EEFCFEF73EFEFFF700FD0346002BBD
:104C800001D100BF0EE0FEF761FD074B002283F863
:104C9000542EFEF793FDFEF74BFEFEF72BFEFFF7BB
:104CA000EDFC0023184680BD68960020B0B59EB08C
:104CB00002AF78600020FEF7CFFF07F10803774AC4
:104CC0001C4615460FCD0FC495E803002060043440
:104CD000217007F10802002300930023019346206E
:104CE0003C214FF6FF73FFF70FFA07F108036C4AF8
:104CF0001C4615460FCD0FC495E8070003C422706B
:104D000007F1080200230093002301933C20502167
:104D10004FF6FF73FFF7F8F907F10802002300933D
:104D2000D723019310465F490022002300F0EEFBD9
:104D300007F1080200230093002301936E206421F1
:104D40004FF6FF73FFF7E0F907F10803564A1C46D8
:104D500015460FCD0FC495E8070084E8070007F15A
:104D6000080200230093002301933620C32148F258
:104D70001043FFF7C9F907F108034C4A1C461546D2
:104D80000FCD0FC495E80F0007C4238002341B0C1D
:104D9000237007F1080200230093002301932A20C7
:104DA000D22148F21043FFF7AFF907F10803404A58
:104DB0001C4615460FCD0FC495E8070003C422809A
:104DC00007F1080200230093002301933C20E12116
:104DD00048F21043FFF798F9364B93F8543EDBB294
:104DE000002B0DD007F10803334A1C4615460FCDA2
:104DF0000FC42B681A46228002341B0C23700CE06F
:104E000007F108032D4A1C4615460FCD0FC42B6829
:104E10001A46228002341B0C237007F1080200237B
:104E20000093002301935820AA214CF21863FFF746
:104E30006BF9234BB3F8A8309BB2082B16D0204B4C
:104E4000B3F8A8309BB21A4607F1080318461D496B
:104E500000F05CFB07F1080200230093002301939C
:104E60003C209B214CF21863FFF74EF9164B0422AD
:104E70001A830023FB6609E0002401E000BF01342F
:104E8000124B9C42FAD9FB6E0133FB66FA6E7B68CB
:104E90009A42F1D37037BD46B0BD00BF80620308AF
:104EA00098620308B4620308C4620308E06203085E
:104EB00000630308689600201C630308306303083E
:104EC0000811002044630308000C02403F420F0019
:104ED00080B483B000AF0346FB710C37BD465DF86C
:104EE000047B704780B483B000AF78600B46FB70E2
:104EF0007B68FA781A70012318460C37BD465DF8B6
:104F0000047B704780B485B000AF786039600023BF
:104F1000FB600AE07B685A1C7A603A68511C396071
:104F200012781A70FB680133FB603B681B78002B1A
:104F3000F0D1FB6818461437BD465DF8047B704716
:104F400080B586B000AFF8607A603B600B46FB72BC
:104F500000237B617B68013B7B603B68092B10D998
:104F60003B681E4AA2FB0323DB08FA7AF868114665
:104F70007A68FFF7E5FF78617B69FA681344FB60A4
:104F800011E00DE0FB7AF8681946FFF7ABFFFB680C
:104F90000133FB607B6901337B617B68013B7B6094
:104FA0007B68002BEEDC39680C4BA3FB0123DA088D
:104FB00013469B0013445B00CA1AD3B23033DBB2F2
:104FC000F8681946FFF78EFF02467B6913447B6140
:104FD0007B6918461837BD4680BD00BFCDCCCCCC10
:104FE00090B587B000AFF8607A603B600B46FB720B
:104FF00000237B613B68002B03DA3B685B423B612B
:1050000001E03B683B617B68013B7B603B69092BAE
:1050100025D93B68002B0FDA3B69314AA2FB0323F9
:10502000DB085B421C46FB7AF86819467A6823461F
:10503000FFF7D6FF78610DE03B69294AA2FB032305
:10504000DB081C46FB7AF86819467A682346FFF7A6
:10505000C7FF78617B69FA681344FB6025E03B6811
:10506000002B02DA7B68013B7B600DE0FB7AF8687D
:105070001946FFF737FFFB680133FB607B6901339B
:105080007B617B68013B7B607B68002BEEDC3B68CF
:10509000002B0ADAF8682D21FFF724FF02467B690E
:1050A00013447B61FB680133FB6039690C4BA3FB44
:1050B0000123DA0813469B0013445B00CA1AD3B2DB
:1050C0003033DBB2F8681946FFF70CFF02467B6904
:1050D00013447B617B6918461C37BD4690BD00BFF9
:1050E000CDCCCCCC90B589B002AFF8607A601A46CE
:1050F0000B46FB721346BB7200237B617B68013B4E
:105100007B60BB6A1B09002B13D0BB6A1B09FA7AB0
:10511000BC7A0093F86811467A682346FFF7E2FFED
:1051200002467B6913447B617B69FA681344FB6028
:1051300011E00DE0FB7AF8681946FFF7D3FEFB6833
:105140000133FB607B6901337B617B68013B7B60E2
:105150007B68002BEEDCBB6A03F00F03092B0BD836
:10516000BB6ADBB203F00F03DBB23033DBB2F868AB
:105170001946FFF7B7FE19E0BB7A002B0BD0BB6ACC
:10518000DBB203F00F03DBB23733DBB2F86819464A
:10519000FFF7A8FE0AE0BB6ADBB203F00F03DBB245
:1051A0005733DBB2F8681946FFF79CFE7B69013381
:1051B0007B617B6918461C37BD4690BD90B58BB0AE
:1051C00002AFF860B9607A603B600023BB610023E6
:1051D0007B61FB68002B02D0FB6800221A70FCE0A8
:1051E0007B681B78252B0BD0FB685A1CFA607A6809
:1051F000511C796012781A707B6901337B61ECE095
:105200007B6801331B78252B0BD1FB685A1CFA6095
:1052100025221A707B6802337B607B6901337B61D6
:10522000DBE02023FB770023BB777B6801337B60C7
:105230007B681B78302B04D13023FB777B680133EC
:105240007B600EE0BB7F1A46920013445B00DAB22B
:105250007B681B781344DBB2303BBB777B68013340
:105260007B607B681B782F2B03D97B681B78392BDD
:10527000E8D9BA7F7B6913441A46BB689A4205D9BC
:10528000BB68DAB27B69DBB2D31ABB777B681B7869
:10529000583B202B00F2938001A252F823F000BF6C
:1052A00077530108BF530108BF530108BF530108DA
:1052B000BF530108BF530108BF530108BF53010882
:1052C000BF530108BF530108BF530108A953010888
:1052D00025530108BF530108BF530108BF530108FC
:1052E000BF53010825530108BF530108BF530108EC
:1052F000BF530108BF530108BF530108BF53010842
:10530000BF530108BF530108BF530108955301085B
:10531000BF5301083F530108BF530108BF530108A1
:1053200059530108BC7F3B681A1D3A601B68FA7F1D
:10533000F86811462246FFF753FEB86142E0BC7F91
:105340003B681A1D3A601B68FA7FF86811462246CE
:10535000FFF7F6FDB86135E0BC7F3B681A1D3A6087
:105360001B68FA7F0093F868114622460023FFF776
:10537000B9FEB86126E0BC7F3B681A1D3A601B6825
:10538000FA7F0093F868114622460123FFF7AAFE30
:10539000B86117E03B681A1D3A601B68F868194647
:1053A000FFF7B0FDB8610DE03B681A1D3A601B685D
:1053B000DBB2F8681946FFF795FDB86102E04FF0DF
:1053C000FF3325E07B6801337B60BB69FA681344D7
:1053D000FB607A69BB6913447B617B681B78002B97
:1053E00004D07A69BB689A42FFF4FAAE7A69BB6866
:1053F0009A4203D2FB6800221A7008E0FB68013B66
:10540000FB60FB6800221A707B69013B7B617B6952
:1054100018462437BD4690BD80B584B000AFF86013
:10542000B9607A60F8684FF49671BA687B68FFF7E4
:10543000C5FE034618461037BD4680BDB0B5D8B08E
:1054400000AF07F10C03186007F1080319603B1D5A
:105450001A6007F11003174A1C4615460FCD0FC4FA
:105460000FCD0FC42B68236007F1340107F1080248
:105470003B1D084611681A68FFF7CEFF0346B3F5D7
:10548000967F09DB0C4B1B68DB6807F110021046A6
:10549000194600F071F8FEE707F1340207F10C033A
:1054A0001046196800F068F80346184607F5B0770B
:1054B000BD46B0BD606303083806002080B582B0E9
:1054C00000AF78603960064B1B689B6818467968A6
:1054D0003A68FFF7B3FF034618460837BD4680BD5C
:1054E000380600200FB480B582B000AF07F1140376
:1054F0003B6038693968FFF7E1FF78607B681846E0
:105500000837BD46BDE8804004B070470EB480B592
:1055100085B000AF786007F12003BB607868F96957
:10552000BA68FFF779FFF860FB6818461437BD4684
:10553000BDE8804003B0704780B582B000AF7860AE
:1055400039600C4B1B689A683B689A4205D0094B3E
:105550001B68DA683B689A4206D17B68DBB2184662
:10556000FFF7B6FC7B6801E04FF0FF3318460837C1
:10557000BD4680BD3806002080B584B000AF78609D
:1055800039600023FB6012E07B681B78184639689D
:10559000FFF7D2FF0346B3F1FF3F02D14FF0FF33D5
:1055A0000AE0FB680133FB607B6801337B607B684A
:1055B0001B78002BE8D1FB6818461037BD4680BD2C
:1055C00080B500AF4FF0804001210EF05BFD034637
:1055D000002B13D04FF0804001210EF07DFD084BD1
:1055E0001B68002B05D0064B1B68013B044A136067
:1055F00004E04FF0804000210EF024FD80BD00BF8C
:105600006C06002080B483B000AF03463960FB71A4
:105610003B6812221A80034B18460C37BD465DF8D2
:10562000047B70476C00002080B483B000AF034659
:105630003960FB713B6804221A80034B18460C3713
:10564000BD465DF8047B70478C00002080B582B0B9
:1056500000AF03463960FB71FB79002B05D1084888
:1056600008493A6804F014FC04E0074805493A6820
:1056700004F00EFC034B18460837BD4680BD00BF42
:1056800084630308A0CD0020A863030880B582B01E
:1056900000AF03463960FB71044805493A6804F0DD
:1056A000F7FB034B18460837BD4680BDCC630308A3
:1056B000A0CD002080B582B000AF03463960FB71F9
:1056C000FB79002B05D1084808493A6804F0E0FB53
:1056D00004E0074805493A6804F0DAFB034B184632
:1056E0000837BD4680BD00BFE0630308A0CD0020A1
:1056F000F063030880B582B000AF03463960FB71E8
:10570000FB79002B05D1084808493A6804F0C0FB32
:1057100004E0054805493A6804F0BAFB034B184613
:105720000837BD4680BD00BF00640308A0CD00203F
:1057300080B582B000AF03463960FB71FB79002B66
:1057400005D1084808493A6804F0A2FB04E005487E
:1057500005493A6804F09CFB034B18460837BD46E0
:1057600080BD00BF0C640308A0CD002080B483B0CE
:1057700000AF78604FF020407B681B687A68516802
:105780007A68926811437A68D26811437A6812691C
:1057900011437A68526911437A68926911437A68B1
:1057A000D26911437A68126A11437A68526A1143C6
:1057B0007A68926A11437A68D26A11437A68126BE6
:1057C0000A4340F823207B689B68082B0DD14FF0DB
:1057D00020417B681B684FF020407A68126850F8BF
:1057E000222042F0400241F823204FF020407B6805
:1057F0001B6801337A68526B11687A68526B526881
:10580000120111437A68526B9268120211437A684E
:10581000526BD268120411437A68526B12691205F6
:1058200011437A68526B5269120611437A68526BBF
:1058300092690A4340F823207B68DB6AB3F5804F06
:1058400020D116487B681B687A68926B11687A6869
:10585000926B5268120111437A68926B926812023D
:1058600011437A68926B1269120511437A68926B40
:105870005269120611437A68926B92690A4340F8A2
:10588000232006E0054A7B681B686FF0704142F8F0
:1058900023100C37BD465DF8047B7047040100A05F
:1058A00080B483B000AF78600B46FB70FB78002BB0
:1058B0000CD04FF020414FF020427B6852F823304B
:1058C00043F001027B6841F823200BE04FF02041B8
:1058D0004FF020427B6852F82320054B13407A6832
:1058E00041F822300C37BD465DF8047B704700BF9D
:1058F000FEFF0F0080B487B000AF786039600023EE
:105900007B6100233B610023FB6000237B6176E029
:105910007B69012202FA03F33B613B681A683B6929
:105920001340FB60FA683B699A4265D17B681A684C
:105930007B695B00194603238B40DB431A407B687D
:105940001A607B681A683B681B7919467B695B00A3
:1059500001FA03F31A437B681A603B681B79012B39
:1059600003D03B681B79022B2ED17B689A687B6938
:105970005B00194603238B40DB431A407B689A6027
:105980007B689A683B685B7919467B695B0001FA22
:1059900003F31A437B689A607B685A687B699BB201
:1059A000194601238B40DB431A407B685A607B68B1
:1059B0005B683A68927911467A6992B201FA02F20A
:1059C00092B21A437B685A607B68DA687B699BB243
:1059D0005B00032101FA03F3DB431A407B68DA60C2
:1059E0007B68DA683B68DB7919467B695B0001FA02
:1059F00003F31A437B68DA607B6901337B617B695F
:105A00000F2B85D91C37BD465DF8047B704700BF5E
:105A100080B485B000AF78600B467B800023FB73B9
:105A20007B681A697B881340002B02D00123FB732B
:105A300001E00023FB73FB7B18461437BD465DF87D
:105A4000047B704780B483B000AF78600B467B80E6
:105A50007B687A881A830C37BD465DF8047B7047F3
:105A600080B483B000AF78600B467B807B687A8817
:105A70005A830C37BD465DF8047B704780B485B00F
:105A800000AF78600B467B8013467B700023FB6081
:105A90000023BB607B787A8802F007029200934073
:105AA000FB607B88DB089BB218467B88DB089BB2D7
:105AB0001A467B68083253F822207B8803F00703DC
:105AC0009B0019460F238B40DB4302EA03017B68EE
:105AD00000F1080243F822107B88DB089BB21A46CB
