:020000040801F1
:1000000018F20020B9150108C1180108D518010817
:10001000E9180108FD180108111901080000000085
:100020000000000000000000000000002519010889
:100030003919010800000000B51501084D19010823
:10004000B5150108B5150108B5150108B515010864
:10005000B5150108B515010855190108C1190108A0
:10006000B5150108B5150108B5150108B515010844
:10007000B5150108D5440108B5150108B5150108E5
:10008000B5150108B5150108B5150108B515010824
:10009000B5150108B5150108B5150108B515010814
:1000A000B5150108B5150108B5150108B515010804
:1000B00019150108B5150108B5150108B515010890
:1000C000B5150108B5150108B5150108B5150108E4
:1000D000B5150108B5150108B5150108B5150108D4
:1000E000F5190108B5150108B5150108B515010880
:1000F000B5150108B5150108B5150108B5150108B4
:10010000B5150108B5150108B5150108B5150108A3
:10011000B5150108B5150108B5150108B515010893
:10012000B5150108B5150108B5150108B515010883
:10013000B5150108B5150108B5150108B515010873
:10014000B5150108B5150108B515010839D801081C
:10015000B5150108B5150108B5150108B515010853
:10016000B5150108B5150108B5150108B515010843
:10017000B515010821150108B5150108B5150108C7
:10018000B5150108B515010810B5054C237833B92C
:10019000044B13B10448AFF300800123237010BD5A
:1001A0005006002000000000A0A50308084B10B571
:1001B0001BB108480849AFF300800848036803B939
:1001C00010BD074B002BFBD0BDE81040184700BF07
:1001D00000000000A0A503085406002048060020E7
:1001E0000000000010B401F003039B0001F0FC01CB
:1001F00001F1804101F59C318C680F229A4024EA7C
:1002000002028A608A68984002438A605DF8044B63
:10021000704700BFC3684FF0FF325A60C3686FF089
:1002200080425A61C368014A9A61704700080080A1
:1002300070B582B005460023019303200EF0E4FE62
:10024000EB681A690192144C032607E030460EF061
:10025000DBFEEB681A690192013C19D0019A002A71
:10026000F4DA019A42F001020192019A1A61EB68F4
:100270001B690193084B04E0EA6812690192013B93
:1002800003D0019A12F0010FF6D103200EF0BCFE4C
:10029000002002B070BD00BF400D030010B4C47850
:1002A0006CB9033300EB8200D0F8D0409B1006D02D
:1002B000002251F8040B206001329342F9D1002052
:1002C0005DF8044B704700BF70B40332D0F8D060C3
:1002D000921009D00C460023356844F8045B0133C2
:1002E0009A42F9D101EB8201084670BC704700BF09
:1002F000F0B40023C370012383704023838001295D
:100300000DD10123C37208230370042343704FF4FB
:10031000A073C380022303724FF0A0460CE051B9D2
:100320000023C3720C230370062343704FF4A063B1
:10033000C380224E00E00026C66006F5006303611C
:10034000477887B100F1140406F5306300F15001DD
:100350000022A3F5007544F8045F41F8043F013220
:1003600020339742F5D806F58063436106F588632C
:10037000C0F8CC300478D4B1254606F5A06200F16F
:100380008C01002341F8042F013320329D42F9D81B
:100390006CB106F5805200F1CC0304F1330100EB9F
:1003A000810143F8042F02F580528B42F9D106F502
:1003B0006066C0F80C610020F0BC7047000004408B
:1003C00038B504460025037A012B21D1C268936B0E
:1003D0006FF31043417A09B143F480139363E268E9
:1003E000D3686FF386136FF396536FF351436FF334
:1003F000D343D3602046FFF71BFFE378012B25D1C1
:10040000052363F3440545F02005E3689D6012E091
:10041000C268D36843F04003D360FFF709FF637AF3
:10042000002B0CBF4FF434134FF47413E268936342
:1004300014200EF0FBFDE378012B07D1E3689D68E3
:10044000052262F3440545F020059D60002038BD7B
:10045000C268936843F0010393600020704700BFB7
:10046000C268936823F0010393600020704700BFC7
:1004700000B583B000230193019B43F02003019357
:1004800001F01F01019B23F4F86343EA81110191FC
:10049000C368019A1A61C3681B690193084B04E0A1
:1004A000C26812690192013B03D0019A12F0200F39
:1004B000F6D103200EF0A8FD002003B05DF804FB88
:1004C000400D030000B583B000230193019B43F06E
:1004D00010030193C368019A1A61C3681B690193F1
:1004E000084B04E0C26812690192013B03D0019AF3
:1004F00012F0100FF6D103200EF086FD002003B09D
:100500005DF804FB400D030008B5C268D3686FF3C3
:100510005D736FF39E73012902D143F0005302E033
:1005200009B943F08043D36032200EF07FFD0020F4
:1005300008BD00BFC3685B6913F0010F0CBF012049
:1005400000207047C3685A6998691040704700BF1F
:1005500038B505460024C3689C61C3686FF08042CB
:100560005A61FFF757FEEB78A34208BF102444F40A
:10057000701444F4605444F00804EA6893691C431E
:100580009461002038BD00BF70B50446D0F80C312E
:1005900000251D600269136865F3CC2313601021E8
:1005A000FFF766FF2046FFF78DFF23691D61236972
:1005B0005D6123694FF0FF329A612369DD616378E1
:1005C000002B38D004F1140229462E46FF2552F89C
:1005D000043F1B68C3F3076323F07F03DBB2002BE8
:1005E0000CBF00204FF090401368186013681E6124
:1005F00013689D60013163788B42E8D8DBB104F168
:10060000500200210E46FF2552F8043F1B68C3F339
:10061000076323F07F03DBB2002B0CBF00204FF0F9
:1006200090401368186013681E6113689D60013163
:1006300063788B42E8D82269136943F480731361AD
:10064000E378012B09D10323402262F38A0343F4A8
:10065000803362F35943226913632046FFF778FF22
:10066000002070BD03699B68C3F34103022B05D0D2
:10067000032B01D0012B03D10220704701207047CA
:100680000320704703699B6882691168C3F34103C3
:10069000022B12BF6FF30A01032363F30A011160F7
:1006A0000269536843F4807353600020704700BFB1
:1006B00030B400244B78012B08D10A7800EB820378
:1006C0009D690123934063F30F0407E00A7800EB70
:1006D00082035D6D0123934063F31F442B68C3F3D2
:1006E000072222F07F0212F0FF0F0DD18A6862F319
:1006F0000A03CA7862F39343CA8862F3995343F0BA
:10070000805343F400432B600269D3692343D361D0
:10071000002030BC704700BF30B4002214464B7834
:10072000012B08D1097800EB81039D6901238B40DF
:1007300063F30F0407E00B7800EB83014D6D01219B
:10074000994061F31F446FF3CF322A600269D36985
:1007500023EA0403D361002030BC704770B54B78A6
:10076000012B53D10B7800EB83039B691A681C693A
:100770004B692BB96FF31204012363F3DC440DE0E2
:1007800063F312048D682B44013BB3FBF5F363F371
:10079000DC44CB78012B08BF63F35E740B7800EB6D
:1007A00083039B691C61C378012B06D10B7800EB96
:1007B00083039B690C695C610BE0CB78012B0BD048
:1007C0004B6993B105696C6B0E780123B3402343E9
:1007D0006B63CB78012B08D103699B6813F4807F8E
:1007E0000CBF42F0005242F0805242F004420B78BB
:1007F00000EB83039B691A60CB78012B41D10B4638
:10080000C9681A789B8AFFF749FD3AE00B7800EB3C
:1008100083035B6D1A681C694B6933B98B6863F39A
:100820001204012363F3DC440CE08D682B44013B8C
:10083000B3FBF5F3C3F3090363F3DC4405FB03F3F4
:1008400063F312040B7800EB83035B6D1C61C378C8
:10085000012B05D10B7800EB83035B6D0C695C61A8
:10086000CB78012B06D14B7913B142F0005201E055
:1008700042F0805242F004420B7800EB8300436D5B
:100880001A60002070BD00BF30B482B04B78012BDD
:1008900047D182691368146900944C696CB99DF85A
:1008A00000406FF306048DF800409DF802400125DA
:1008B00065F3C4048DF8024017E08D68AC4207D997
:1008C0004D619DF8004065F306048DF8004005E099
:1008D0009DF8005064F306058DF800509DF8024025
:1008E000012565F3C4048DF80240009C1461C478AE
:1008F000012C05D10C7800EB8404A4690D696561B5
:1009000043F004431360C378002B47D14B69002B9D
:1009100044D00069426B097801238B401343436341
:100920003CE00B7800EB83035A6D13681269009268
:100930004A6972B98C689DF8002064F306028DF84C
:1009400000209DF80220012464F3C4028DF80220E7
:100950000EE08C684C619DF8002064F306028DF86F
:1009600000209DF80220012464F3C4028DF80220C7
:100970000A7800EB8202526D009C1461C278012A51
:1009800005D10A7800EB8202526D0C69546143F084
:1009900004430A7800EB8200426D1360002002B02D
:1009A00030BC70474B78012B11D10B7800EB8300E2
:1009B00081690B68C3F3076222F07F0212F0FF0F18
:1009C00018BF43F0804343F400130B6007E00B783B
:1009D00000EB8300426D136843F4001313600020A2
:1009E000704700BF4B78012B0B7800EB83000CBFE6
:1009F0008069406D02686FF35552CB78023BDBB2E1
:100A0000012B98BF42F0805202600020704700BF67
:100A100002699369D0691840000C704700EB8101AE
:100A20004B6D9B680269506918407047036998696B
:100A3000DB69184080B2704782B000230093C02366
:100A40008DF803304FF00003012262F3C4038DF8E8
:100A5000023018238DF80030436D009A1A61C37874
:100A6000012B08D1436D00F2CC525A61436D1A68D4
:100A70004FF080221A6002B0704700BF2DE9F041AC
:100A800086B002248DF8084000258DF809504FF0FB
:100A900001088DF80B8006AF402347F8143D1B4E2C
:100AA0003046394603F0FEF880230193304639463C
:100AB00003F0F8F830460621032203F043F93046EC
:100AC0000721032203F03EF92046414601F04CF98C
:100AD00041F207030493ADF80C50ADF81450ADF893
:100AE0000E5005F1804505F5823528460321224642
:100AF00023460EF007FB284603A90EF09FFA28466E
:100B000041460EF0E1FA06B0BDE8F081000802406F
:100B10002DE9F04186B002248DF8084000258DF8BB
:100B200009504FF001088DF80B8006AF102347F8ED
:100B3000143D1A4E3046394603F0B4F82023019391
:100B40003046394603F0AEF830460421224603F021
:100B5000F9F830460521224603F0F4F820464146D4
:100B600001F0F4F841F207030493ADF80C50ADF82E
:100B70001450ADF80E500A4D284603212246234654
:100B80000EF0C0FA284603A90EF058FA284641464E
:100B90000EF09AFA06B0BDE8F08100BF00040240F2
:100BA000000400402DE9F04186B002248DF8084091
:100BB00000258DF809504FF001088DF80B8006AF25
:100BC0004FF4805347F8143D1A4E3046394603F02F
:100BD00069F84FF4005301933046394603F062F848
:100BE00030460C21224603F0ADF830460D21224656
:100BF00003F0A8F80420414601F0A8F841F20703E9
:100C00000493ADF80C50ADF81450ADF80E500A4DE9
:100C100028460321224623460EF074FA284603A9EB
:100C20000EF00CFA284641460EF04EFA06B0BDE82A
:100C3000F08100BF000C0240000800402DE9F041A7
:100C400086B002248DF8084000268DF80960012541
:100C50008DF80B500DF1180848F8145D194F3846FF
:100C6000414603F01FF801943846414603F01AF854
:100C700038463146224603F065F838462946224672
:100C800003F060F80820294601F060F841F20703FC
:100C90000493ADF80C60ADF81460ADF80E600A4E28
:100CA00030460321224623460EF02CFA304603A993
:100CB0000EF0C4F9304629460EF006FA06B0BDE83B
:100CC000F08100BF00000240000C0040704700BFF0
:100CD000704700BF704700BF704700BF704700BF3C
:100CE000704700BF704700BF064A074901E0013A5C
:100CF00006D08B8A9BB203408342F8D10020704714
:100D0000012070470124F40000540040064A0749BE
:100D100003E0013A01D1012070470B8B03F002037D
:100D20009BB2002BF5D170470124F4000054004021
:100D300070B586B0C023049302238DF814300124CB
:100D40008DF815408DF816408DF817401B4D28463C
:100D500004A902F0A7FF28460621042202F0F2FFB0
:100D600028460721042202F0EDFF4FF4001021462F
:100D700000F0ECFF124E30460CF0F6FE0023ADF80A
:100D800004304BF6FF73ADF806303323ADF808306E
:100D90004FF48063ADF80A304FF48043ADF80C3067
:100DA00006AD084B45F8183D304621460CF07EFF55
:100DB000304629460CF00AFF06B070BD0004024020
:100DC00000540040A08601002DE9F04706468A46FF
:100DD00090464C4A4C4B1A604C4F4FF400351C4621
:100DE00004E023685A1E2260002B79D03846294639
:100DF0000CF0B6FF0028F4D1444801210CF064FF48
:100E00004FF4A062404B1A60DFF80091404D1C4641
:100E100004E023685A1E2260002B64D0484629460D
:100E20000CF08CFF0028F4D03848314600220CF03A
:100E300067FF4FF4A062344B1A60344E354D1C46A8
:100E400004E023685A1E2260002B4FD0304629460A
:100E50000CF074FF0028F4D02C4851460CF068FFC9
:100E60004FF4A062284B1A60284E2B4D1C4604E01C
:100E700023685A1E2260002B3BD0304629460CF0D6
:100E80005DFF0028F4D0214841460CF051FF1D4A77
:100E90001D4B1A601D4E214D1C4603E023685A1E4F
:100EA00022604BB3304629460CF05AFF0028F5D09B
:100EB000164801210CF016FF4FF4A062124B1A6085
:100EC000124E174D1C4603E023685A1E2260B3B130
:100ED000304629460CF044FF0028F5D1BDE8F087E4
:100EE0000120BDE8F0870220BDE8F0870320BDE8BF
:100EF000F0870420BDE8F0870520BDE8F0870620D4
:100F0000BDE8F08700DC05001C0000200054004014
:100F100001000300820007008000070004000010A9
:100F2000100000102DE9F04780468A461746994682
:100F3000504A514B1A60514E4FF400351C4605E0A3
:100F400023685A1E2260002B00F08180304629461B
:100F50000CF006FF0028F3D1484801210CF0B4FE44
:100F60004FF4A062444B1A60444E454D1C4604E0C9
:100F700023685A1E2260002B6CD0304629460CF0A4
:100F8000DDFE0028F4D03D48414600220CF0B8FEBA
:100F90004FF4A062384B1A60384E3A4D1C4604E0BC
:100FA00023685A1E2260002B57D0304629460CF089
:100FB000C5FE0028F4D0314851460CF0B9FE4FF47C
:100FC000A0622D4B1A602D4E2F4D1C4604E0236865
:100FD0005A1E2260002B43D0304629460CF0AEFE4C
:100FE0000028F4D0B9F1000F19D0B944234D224C98
:100FF000DFF88080254E284617F8011B0CF098FE7C
:10100000C4F8008003E023685A1E22605BB32846C0
:1010100031460CF0A5FE0028F5D04F45EBD117481E
:1010200001210CF05FFE4FF4A062134B1A60134EC7
:10103000174D1C4603E023685A1E2260B3B13046A8
:1010400029460CF08DFE0028F5D1BDE8F08701207F
:10105000BDE8F0870220BDE8F0870320BDE8F087F7
:101060000420BDE8F0870520BDE8F0870620BDE834
:10107000F08700BF00DC05001C0000200054004089
:101080000100030082000700800007000400001038
:10109000100000102DE9F04706468A469046744A33
:1010A000744B1A60744F4FF400351C4605E02368FA
:1010B0005A1E2260002B00F0C680384629460CF0EC
:1010C0004FFE0028F3D16C4801210CF0FDFD4FF4D8
:1010D000A062684B1A60DFF8A091684D1C4605E0DD
:1010E00023685A1E2260002B00F0B0804846294633
:1010F0000CF024FE0028F3D05F48314600220CF0AB
:10110000FFFD4FF4A0625B4B1A60DFF86C915C4D01
:101110001C4605E023685A1E2260002B00F09980CF
:10112000484629460CF00AFE0028F3D052485146A2
:101130000CF0FEFD4FF4A0624E4B1A604E4F514D25
:101140001C4605E023685A1E2260002B00F08480B4
:10115000384629460CF004FE0028F3D04648012109
:101160000CF0B2FD4FF4A062424B1A60424F434D67
:101170001C4604E023685A1E2260002B6FD03846BC
:1011800029460CF0DBFD0028F4D03B483146012213
:101190000CF0B6FD4FF4A062364B1A60364E3A4D55
:1011A0001C4604E023685A1E2260002B5AD03046A9
:1011B00029460CF0D5FD0028F4D02F4C2046002104
:1011C0000CF0A8FD238B204601210CF08BFD4FF481
:1011D000A062284B1A6026462C4D1C4604E023686A
:1011E0005A1E2260002B40D0304629460CF0B8FD34
:1011F0000028F4D020480CF09DFD88F800004FF442
:10120000A0621C4B1A601C481A460AE01368591E5B
:10121000116033B9184801210CF07CFD0920BDE8AC
:10122000F087038803F400739BB2002BEED1124CBD
:10123000204601210CF06EFD204615490CF0ACFD56
:101240000020BDE8F0870120BDE8F0870220BDE85E
:10125000F0870320BDE8F0870420BDE8F087062072
:10126000BDE8F0870720BDE8F0870820BDE8F087DB
:1012700000DC05001C0000200054004001000300B9
:10128000820007000400001002000010400000105F
:10129000000400102DE9F04707468A46904699461B
:1012A000964A974B1A60974E4FF400351C4605E05E
:1012B00023685A1E2260002B00F00D81304629461B
:1012C0000CF04EFD0028F3D18E4801210CF0FCFCFF
:1012D0004FF4A0628A4B1A608A4E8B4D1C4605E083
:1012E00023685A1E2260002B00F0F8803046294601
:1012F0000CF024FD0028F3D08248394600220CF07F
:10130000FFFC4FF4A0627E4B1A607E4E7F4D1C4660
:1013100005E023685A1E2260002B00F0E280304670
:1013200029460CF00BFD0028F3D0764851460CF00E
:10133000FFFC4FF4A062724B1A60724E744D1C4653
:1013400005E023685A1E2260002B00F0CD80304655
:1013500029460CF005FD0028F3D06A4801210CF065
:10136000B3FC4FF4A062664B1A60664E664D1C4695
:1013700005E023685A1E2260002B00F0B88030463A
:1013800029460CF0DBFC0028F3D05E4839460122E8
:101390000CF0B6FC4FF4A062594B1A60594E5D4DEB
:1013A0001C4605E023685A1E2260002B00F0A28034
:1013B000304629460CF0D4FC0028F3D0B9F1010FD7
:1013C00003D0B9F1020F1CD04AE04E4C238823F41D
:1013D00080631B041B0C2380238B23889BB243F464
:1013E0000073238020460CF0A5FC88F80000FFF76E
:1013F0008DFC23889BB243F4806323800020BDE8EA
:10140000F087404C238823F480631B041B0C23804B
:1014100023889BB243F400632380238B0420FFF7CF
:1014200063FC23889BB243F40073238020460CF0B6
:1014300081FC88F8000020460CF07CFC88F8010054
:10144000FFF764FC23889BB243F4806323802388E6
:1014500023F400631B041B0C23800020BDE8F087ED
:10146000284B1B8BB9F1030F0FD9A9F10304444496
:10147000244E042530460CF05DFC08F8010B28468C
:10148000FFF732FCA045F5D100E044461D4D2B8806
:1014900023F480631B041B0C2B8028460CF04AFCB1
:1014A00020700420FFF720FC2B889BB243F40073CC
:1014B0002B8028460CF03EFC607028460CF03AFC6D
:1014C000A070FFF723FC2B889BB243F480632B8032
:1014D0000020BDE8F0870120BDE8F0870220BDE8CC
:1014E000F0870320BDE8F0870420BDE8F0870620E0
:1014F000BDE8F0870720BDE8F08700BF00DC0500ED
:101500001C0000200054004001000300820007007E
:10151000040000100200001008B502F0D5FA08BD62
:10152000704700BF30B4094D2A6840F6FE7383400F
:1015300022EA03044A680B681A438B681343CA689B
:101540001343834023432B6030BC7047007400403A
:1015500031B107490A680123834013430B60704788
:1015600003490A680123834022EA03030B607047A2
:101570000074004082B000230193054B0193019B4E
:10158000083318440190019B196002B0704700BFF6
:101590000074004082B000230193054B0193019B2E
:1015A000143318440190019B196002B0704700BFCA
:1015B00000740040FEE700BF08B5134B134A9A427F
:1015C0000DD2101D0333181A20F003000430104B05
:1015D000184453F8041B42F8041B8342F9D10D4808
:1015E0000D494FF000028842B8BF40F8042BFADBE7
:1015F000DFF82800016841F47001016002F0DAFCB4
:1016000000F0FEFA08BD00BF4C06002000000020DC
:10161000A0A503085006002018E2002088ED00E095
:1016200010B50446D0F8E8351B699847032384F8C1
:101630001231002010BD00BF08B590F8123180F8BB
:101640001331042380F81231D0F8E835DB6898476D
:10165000002008BD08B5D0F8E435DB6903B1984730
:10166000002008BD08B5D0F8E4351B6A9847002073
:1016700008BD00BF08B5D0F8E4355B6A9847002084
:1016800008BD00BF10B50446002140220B460CF0F7
:1016900083FC20468021402200230CF07DFC0123A6
:1016A00084F81231D4F8E8355B68A07898470020B8
:1016B00010BD00BF10B582B00446694605F068FB56
:1016C0009DF8001001F01F03012B08D013B1022B6D
:1016D0000AD00EE02046694605F08AFB0EE020465F
:1016E000694605F019FD09E02046694605F030FD20
:1016F00004E0204601F080010CF0F4FC002002B070
:1017000010BD00BF10B50446002949D190F8113131
:10171000022B39D1D0F83821D0F824319A4211D98E
:10172000D21AC0F83821C178012904D1D0F8281183
:101730000B44C0F828312046D4F8281192B20DF09D
:10174000BBFB21E0D0F83C11B1FBF3F203FB12121A
:101750006AB98B420BD8D0F84031994207D20021A8
:101760000A460DF0A9FB0023C4F840310CE0D4F880
:10177000E435DB682BB194F81221032A01D120460D
:10178000984720460DF0CEFB94F81631012B12D16C
:1017900023690A4A12685A60002384F816310AE065
:1017A0000A46D0F8E4355B692BB190F81211032991
:1017B00001D111469847002010BD00BFF010002055
:1017C00010B5044659BB90F81131032B32D1D0F833
:1017D0009023D0F87C339A4214D9D21AC0F89023BF
:1017E000C178012904D1D0F880131944C0F88013BE
:1017F0009A4228BF1A462046D4F8801392B20DF0C0
:1018000077FB17E0D0F8E4351B6923B190F812217B
:10181000032A00D1984720460DF074FB0AE00A46DF
:10182000D0F8E4359B692BB190F81211032901D14E
:1018300011469847002010BDF8B504460D461646DF
:101840001F460DF07FFBC4F8E475069BC4F8E8352D
:10185000C4F8EC65204629460CF048FB20460DF004
:10186000BBFBF8BD10B504460CF092FB20460DF012
:1018700091FB002010BD00BF10B50446D0F8E43540
:101880001B689847D4F8E8359B689847002010BD3E
:1018900008B5D0F8E4355B689847002008BD00BF64
:1018A000BFF34F8F0449CA6802F4E062034B13434D
:1018B000CB60BFF34F8FFEE700ED00E00400FA05B8
:1018C00008B5034802F0F2F80120FFF7E9FF00BF76
:1018D00058EE020808B5034802F0E8F80220FFF7C6
:1018E000DFFF00BF70EE020808B5034802F0DEF823
:1018F0000320FFF7D5FF00BF8CEE020808B50348B0
:1019000002F0D4F80420FFF7CBFF00BFA8EE0208D6
:1019100008B5034802F0CAF80520FFF7C1FF00BF71
:10192000C4EE020808B5034802F0C0F80620FFF72D
:10193000B7FF00BFE0EE020808B5034802F0B6F8B2
:101940000720FFF7ADFF00BFF8EE020808B513F05F
:1019500033FC08BD08B501200CF06AFA40B3164B01
:1019600093F87A30DBB2022B07D11448012102F040
:10197000DFF9E8B90CF01AFF1AE00F4B93F87A3050
:1019800013F0FF0F0BD00C4B93F87A30DBB2012B26
:1019900005D0094B93F87A30DBB2032B08D1074806
:1019A000012102F0C5F918B90122034B83F879200F
:1019B00001200CF04BFA08BDF4100020001002408A
:1019C00008B502200CF034FA60B1084B93F87A3075
:1019D000DBB2022B06D10648022102F0A9F908B9B0
:1019E0000CF018FF02200CF031FA08BDF4100020B2
:1019F0000010024008B54FF400500CF019FA4FF4F3
:101A000000500CF023FA08BD70B4754B002283F827
:101A100078204BF68031196083F87B2083F87C2096
:101A200083F87D20042483F870405A6783F87A2075
:101A30001021997199714FF07E519960322119618D
:101A4000032083F88B00092119759A80012183F8FE
:101A500089100C2683F88A6083F87F00062583F8B6
:101A6000805083F8810083F88200022583F8835038
:101A700083F8841083F885100520987583F89020EA
:101A8000142083F8910040F2EE20C3F8940083F80C
:101A90009820082083F899004FF4E170C3F89C0067
:101AA0005A751A625A621A625A629A63DA635A64FF
:101AB0009A64DA651A6683F8642083F8652083F8EF
:101AC00066209A66DA665A76DA6183F8A1200F20DA
:101AD00083F8A20093F8A200C0B2C3F8A40083F870
:101AE000AE2083F8AC6083F8AF204FF07C5058658F
:101AF000DA751A769A6583F8A05083F8B22083F8D5
:101B0000B31083F8B44083F8B52083F8B61044F2DC
:101B10000820C3F8B80083F8BC100A2083F8BD0081
:101B200083F8BE0083F86620C3F8C020C3F8C42041
:101B300083F8C820C3F8CC20C3F8D01083F8D410A1
:101B400083F8D51083F8D61083F8D71083F8D8100F
:101B500083F8D91083F8DA1083F8DB1083F8DC10EF
:101B600083F8862083F8872083F8882083F87E20F6
:101B700083F8E60083F8E71083F8AD2083F8E820C7
:101B8000C3F8EC2083F8F020FF2083F8F100C02098
:101B9000C3F8F40083F8F220C3F8FC00C3F8001186
:101BA000C3F80421C3F80821C3F80C2183F81021DD
:101BB00083F81121C3F8182183F81C2183F81D2113
:101BC000C3F8202183F8242183F8252183F82621D6
:101BD000C3F8282183F82C2183F82D2170BC70478D
:101BE000F410002008B5044B18689FED040A00218A
:101BF0000BF072FF08BD00BFF410002000000000D1
:101C000008B50CF007FF01200CF018FEFFF7FCFEF2
:101C100015F034FF0D4CA4F8B000642001F07AFCFC
:101C2000FFF7E0FF11F02EFE12F040F812F0E2FB99
:101C300003F00EF812F0E4F803F00AF8632363737C
:101C4000002000F045F90EF067FAFCE7F4100020E0
:101C5000034A936823F07843194308439060704720
:101C60000038024010B4214B9B6803F00C03042B96
:101C700005D0082B06D0EBB91D4B03601CE01C4BB4
:101C8000036019E0194B5A685B6803F03F03174A79
:101C90005268C2F388121649B1FBF3F303FB02F258
:101CA000124B5B68C3F3014301335B00B2FBF3F3F8
:101CB000036001E00E4B03600C4A93680D49C3F3C7
:101CC0000313CC5C0368E34043609468C4F382244C
:101CD0000C5D23FA04F484609268C2F342328A5C99
:101CE000D340C3605DF8044B704700BF003802402A
:101CF0000024F40014EF020821B1054A136B1843C5
:101D000010637047024A136B23EA000010637047A8
:101D10000038024021B1054A536B184350637047A5
:101D2000024A536B23EA00005063704700380240B8
:101D300021B1054A936B184390637047024A936B35
:101D400023EA0000906370470038024021B1054A41
:101D5000136C184310647047024A136C23EA0000A6
:101D6000106470470038024021B1054A536C184393
:101D700050647047024A536C23EA00005064704775
:101D80000038024021B1054A136A184310627047B7
:101D9000024A136A23EA00001062704700380240CA
:101DA00021B1054A536A184350627047024A536A88
:101DB00023EA00005062704700380240704700BFBD
:101DC00008B50A46C1F3002141EA40013420C9B2F6
:101DD000D2B20CF01FFA08BD10B52F302E2898BFD4
:101DE0002F207F2828BF7F200446154B93F878309A
:101DF000DBB2012B1BD1124B93F82C3113F0FF0FE8
:101E00000BD10F4B93F82C3113F0FF0F0AD10C4B71
:101E100093F81D3113F0040F04D003200021FFF7C5
:101E2000CFFF08E003207821FFF7CAFF03E003207B
:101E30007821FFF7C5FF0220A1B2FFF7C1FF10BD57
:101E4000F410002038B504460D460F200021FFF79E
:101E5000B7FFD8BB1F21FFF7B3FF01201F21FFF7FA
:101E6000AFFF0020FFF7B8FF04201221FFF7A8FF03
:101E700005200021FFF7A4FF06206221FFF7A0FF45
:101E800025B907200221FFF79BFF03E007200E2161
:101E9000FFF796FF4BF680339C4204D108200021C7
:101EA000FFF78EFF0EE0B4F5FA4F04D10820182199
:101EB000FFF786FF06E0B4F5FA5F03D108200C2196
:101EC000FFF77EFF09200121FFF77AFF38BD00BF31
:101ED00008B520B105200821FFF772FF08BD0520D5
:101EE0000021FFF76DFF08BD30B585B005464FF402
:101EF00000400121FFF72AFF0E4C20460BF0CAFCE0
:101F000002950023ADF80230ADF80430ADF80C3086
:101F10004FF40072ADF80020ADF806302046694657
:101F20000BF00CFD4FF0402069460BF099FD05B019
:101F300030BD00BF003C0040F0B583B04FF4E0532B
:101F4000009302268DF804608DF8056000248DF85A
:101F500006408DF80740204D2846694601F0A2FE54
:101F60004FF4004300938DF804608DF805608DF800
:101F700006408DF80740194F3846694601F092FE39
:101F80004FF40073009303238DF805308DF804603F
:101F90008DF806408DF807402846694601F082FE1C
:101FA0004FF080404FF02051FFF752FE38460F218E
:101FB000062201F0C7FE28460A21062201F0C2FED1
:101FC00028460C21062201F0BDFE28460B210622E0
:101FD00001F0B8FE03B0F0BD00080240000002406E
:101FE00038B504460D46FFF7A7FF2046FFF77CFFF4
:101FF00020462946FFF726FF002038BD08B540F4EB
:1020000080710020FFF7DCFE08BD00BF38B5414BF2
:1020100093F8783013F0FF0F11D10020FFF7DCFEAA
:102020000020FFF7EBFF04201221FFF7C9FE062076
:102030006221FFF7C5FE0122364B5A7638BD0020DB
:10204000FFF7CAFE344B03F62402126803F6282376
:102050001A60304B93F87A30DBB2022B51D12D4B02
:1020600093F8AF3013F0FF0F4BD038BD294B93F8E6
:102070002C3138BD2846FFF7AFFE631E13F0FF0476
:10208000F8D1264B00BF013BFCD1224B93F8A13085
:1020900013F0FF0F2FD11F4B93F8A230DBB2322B7E
:1020A0000FD91C49012381F8AE3091F8A230A3F179
:1020B00023021B4B83FB0203A3EBE273C1F8A430A2
:1020C00008E0144B002283F8AE2093F8A220D2B28D
:1020D000C3F8A4200F4B93F8AE3013F0FF0F4FF06E
:1020E00004000CBF14211521FFF76AFE06206121B0
:1020F000FFF766FE38BD074B93F8AC00FFF77EFF95
:1021000038BD044B93F8AF3013F0FF0FAED1082465
:102110000025AFE7F4100020ECB1002040420F0092
:102120005655555510B4436823F0407222F480721E
:102130000B6813430A7943EA022343608468CA6840
:102140000B691A438B681A43094B234013434A799E
:1021500043EA42038360C36A23F470020B7D013BB0
:10216000DBB242EA0353C3625DF8044B704700BF21
:10217000FDF7FFC000230360037143718360C360F8
:10218000036101230375704710B4084C6268084B63
:10219000134041680268114382681143C2680A43D0
:1021A000134363605DF8044B704700BF0023014098
:1021B000E030FCFF21B1836843F001038360704786
:1021C000836823F001038360704700BF70B409295E
:1021D0000CD9C668A1F10A0404EB44040725A54004
:1021E00026EA0505A3402B43C36009E0056901EB1E
:1021F00041060724B44025EA0404B34023430361A5
:10220000062A0BD8446B013A02EB82021F2393404B
:1022100024EA030391401943416318E00C2A0BD8C8
:10222000046B073A02EB82021F23934024EA030364
:102230009140194301630AE0C46A0D3A02EB82023D
:102240001F23934024EA030391401943C16270BCE9
:10225000704700BF836843F080438360704700BFCE
:10226000C06C80B2704700BF70B506460B4D0224AB
:10227000284621460BF02AFC0028F9D007483146B1
:102280000BF016FC054D0124284621460BF01EFCE0
:102290000028F9D001480BF007FC70BD0038004061
:1022A00070B541F20104124E022501E0013C1BD041
:1022B000304629460BF00AFC0028F7D00C480021D4
:1022C0000BF0F6FB41F20104094E012501E0013C4F
:1022D0000CD0304629460BF0F9FB0028F7D0044813
:1022E0000BF0E2FBC0B270BDFF2070BDFF2070BDDF
:1022F0000038004030B583B00425009501238DF8E7
:10230000043000238DF806308DF807308DF8053045
:10231000034C2046694601F0C5FC658303B030BD1F
:10232000000C02402DE9F04788B04FF480400121B5
:10233000FFF70CFD02268DF81C6000258DF81E505D
:102340004FF003098DF81D9008AC4FF4005344F88A
:10235000083DDFF8CCA05046214601F0A3FC4FF029
:102360000808CDF818802B4F3846214601F09AFC1A
:10237000042306933846214601F094FC50460D2173
:10238000052201F0DFFC38463146052201F0DAFC77
:1023900038464946052201F0D5FCDFF888904846CA
:1023A0000BF078FAADF80450ADF80850ADF80A60BB
:1023B0000127ADF80C704FF40073ADF80E30ADF896
:1023C0001080ADF812504FF48273ADF806304846D5
:1023D00001A90BF091FA484639460BF025FB8DF820
:1023E0001C708DF81E508DF81D604FF480550695B9
:1023F000094E3046214601F055FCCDF818800748BB
:10240000214601F04FFC3046294601F097FC08B008
:10241000BDE8F0870008024000100240000C0240B6
:10242000000402400038004030B583B0154C20460F
:1024300000210BF0F9FA20460BF02CFA00238DF85E
:1024400004308DF8053002AC4FF4005344F8083DD9
:102450000D48214601F026FC082300930B4D284629
:10246000214601F01FFC042300932846214601F079
:1024700019FC4FF4805300930548214601F012FCEB
:1024800003B030BD003800400004024000080240A4
:1024900000100240F0B583B04CF6B37300930227EE
:1024A0008DF8047003258DF8055000268DF8066020
:1024B0008DF80760434C2046694601F0F3FB204647
:1024C00031460C2201F03EFC204601210C2201F095
:1024D00039FC204604210C2201F034FC2046052161
:1024E0000C2201F02FFC204607210C2201F02AFCCF
:1024F000204608210C2201F025FC204609210C224F
:1025000001F020FC20460A210C2201F01BFC204691
:102510000B210C2201F016FC20460E210C2201F0AA
:1025200011FC20460F210C2201F00CFC4FF68073A9
:1025300000938DF804708DF805508DF806608DF8C5
:102540000760214D2846694601F0ACFB284607216B
:102550000C2201F0F7FB284608210C2201F0F2FBC7
:10256000284609210C2201F0EDFB28460A210C2205
:1025700001F0E8FB28460B210C2201F0E3FB284682
:102580000C210A4601F0DEFB28460D210C2201F049
:10259000D9FB28460E210C2201F0D4FB28460F213E
:1025A0000C2201F0CFFB0823009301238DF80430A7
:1025B0008DF806608DF805702046694601F072FBC3
:1025C00003B0F0BD000C02400010024010B5074CF3
:1025D0002046082101F0B2FB2046082101F0B0FBA3
:1025E0002046082101F0AAFB10BD00BF000C0240EC
:1025F00010B596B001200146FFF79AFB0323009324
:1026000000240194092302930394049405940694EE
:1026100007940894099410230A930B940C940D9436
:102620000E940F944FF480531093119412941394BA
:10263000CDF850D0CDF854D007A801F0BBFA204611
:10264000012101F01BFB16B010BD00BF38B50546D7
:102650000A4C20464FF4805101F072FB7020FFF7C6
:1026600003FE0020FFF700FE2846FFF7FDFD204691
:102670004FF4805101F062FB38BD00BF00100240F2
:1026800038B505460A4C20464FF4805101F058FBFE
:102690007220FFF7E9FD280AFFF7E6FDE8B2FFF731
:1026A000E3FD20464FF4805101F048FB38BD00BFE8
:1026B0000010024008B57220FFF7D6FD08BD00BF2C
:1026C00010B50446074B93F8543E13F0FF0F06D0A5
:1026D000000AFFF7C9FDE0B2FFF7C6FD10BD024BCF
:1026E000188010BD0C8C00200000026038B50D4D24
:1026F00028464FF4805101F023FB7320FFF7B4FD0F
:10270000FFF7CEFDFFF7CCFD000200F47F44FFF79A
:10271000C7FD204384B228464FF4805101F00EFBE0
:10272000204638BD0010024010B50C46094B93F806
:10273000543E13F0FF0F06D0C0B2FFF787FF2046CC
:10274000FFF79EFF10BD4FF0C043188003F5003324
:10275000198010BD0C8C002010B504462020FFF716
:10276000E3FF21202146FFF7DFFF10BD08B50A4B2C
:1027700093F8543E13F0FF0F05D0C0B2FFF766FF89
:10278000FFF7B4FF08BD4FF0C043188003F50033D6
:10279000188880B208BD00BF0C8C002038B50446F4
:1027A00000200146FFF7D8FF124B93F8543E13F078
:1027B000FF0F14D02220FFF749FF4FF480520E4B39
:1027C0005A83FFF777FF4FF4C8352046FFF778FFAD
:1027D000013DFAD14FF48052074B1A8338BD2222B3
:1027E0004FF0C0431A804FF4C833044A1480013BB1
:1027F000FCD138BD0C8C00200010024000000260AB
:1028000008B50B4B93F8543E13F0FF0F0AD022206B
:10281000FFF71CFF07484FF4805101F091FAFFF7D2
:1028200049FF08BD22224FF0C0431A8008BD00BFF7
:102830000C8C0020001002402DE9F84F04460F4692
:1028400015469846BDF82860FFF786FFB8F1010FDE
:1028500003D0A846CDB9BDE8F88FFFF7D1FF2F46CA
:1028600035B100243046FFF72BFF0134BC42F9D1CB
:10287000164B93F8543E13F0FF0F24D014484FF436
:10288000805101F05BFABDE8F88F0025DFF83C903D
:10289000DFF83CB04FF4805AFFF7B2FF3046FFF745
:1028A0000FFF99F8543E13F0FF0F03D058465146DE
:1028B00001F044FA0134A4B220463946FFF74CFF38
:1028C00001354545E8D1BDE8F88F00BF0C8C0020EC
:1028D00000100240A2B32DE9F84F804689461E46FB
:1028E00017464FEA520B00252C46DFF85CA008EB98
:1028F000040080B24946FFF72FFFFFF781FFF3087E
:10290000B008400140EAC320184380B2FFF7D8FE68
:102910009AF8543E13F0FF0F04D00A484FF4805148
:1029200001F00CFA0135082D05D1A3458CBF043602
:10293000043EB6B200250134BC42D8D1BDE8F88FC0
:10294000704700BF001002400C8C00202DE9F041C0
:1029500082B00746884614461E46BDF820500095B2
:102960001A460023FFF768FF009538464146224685
:102970000123FFF761FFB819621C009580B2414640
:1029800092B20123FFF758FF08EB04010095384687
:1029900089B232460023FFF74FFF02B0BDE8F08155
:1029A0002DE9F04182B080460F4616461C46BDF820
:1029B000205000951A460023FFF73EFF0095404641
:1029C000394632460123FFF737FF08EB0400009534
:1029D00080B2394632460123FFF72EFF02B0BDE830
:1029E000F08100BF2DE9F04782B0BDF828705D1E70
:1029F000ADB28BB1914688460646013500244FF0B2
:102A0000010A3019009780B241464A465346FFF703
:102A100013FF0134AC42F4D102B0BDE8F08700BF2F
:102A20002DE9F04F89B0804604910393BDF84830FA
:102A30000293139F97F804A03B680693203AFB8803
:102A400003FB02F35B000793FFF786FEFB88002B76
:102A500058D02E4BA3FB0A2303F0F803802202FA7E
:102A600003F60025DFF8ACB03FE00024069B079A90
:102A700003EB0209FFF7C4FE39F815200123A34038
:102A8000134046FA04F10A4203D1BAF10C0F04D9FB
:102A900035E033B9BAF10C0F03D90298FFF710FEF5
:102AA00002E00398FFF70CFE9BF8543E13F0FF0F73
:102AB00004D017484FF4805101F040F908F10100AB
:102AC000204480B20199FFF747FE0134BB88A3423E
:102AD000D0D8049B591C059B0B44404699B2FFF784
:102AE0003BFE0135FB88AB420CD9ABB20593049A8F
:102AF00013449BB20193BB88002BB6D1E9E7002BAE
:102B0000CBD0CEE709B0BDE8F08F00BFABAAAAAA30
:102B1000001002400C8C00202DE9F04F85B00446D7
:102B20000F4615469846BDF838909DF83CB00BF11D
:102B3000FF33032B09D8DFE803F00A0204061D4E19
:102B400006E01D4E04E01D4E02E01D4E00E01D4E4D
:102B50004FF0000ACDF80CA015F8012BCDF800902D
:102B60000196204639464346FFF75AFFB388C3F51E
:102B7000A07294420CDA1C44A4B2BBF1040F12D12F
:102B80002B78392B8CBF04F1FF34023CA4B20AE04D
:102B9000F388C3F5A072974203DA1F44BFB25446CC
:102BA00001E05746039C2B78002BD5D105B0BDE83A
:102BB000F08F00BF64F102085CF102084CF10208DA
:102BC00054F102086CF102082DE9F04F89B002902F
:102BD000039105920693BDF84830002B14BF7F2364
:102BE000012303F13E0BBC330493C54DDFF81CA356
:102BF000029B33F8024B0293039A32F8023B039292
:102C00003F2C28BF3F243F2B28BF3F230193A342E3
:102C100080F0BE80059B2BBBB5F8343E9BB25B4574
:102C20000AD00123194603F5E36205EB42029288BC
:102C300092B25A4510D100E0002101F5E36305EBA3
:102C40004303B3F804B01FFA8BFBAE4BD3F8B87054
:102C5000BFB24FF0010907E00133072BE2D14FF07B
:102C6000000901E04FF00009C4F1D1081FFA88F80B
:102C700095F8543E13F0FF0F47D04FF48056A24B07
:102C80005E837020FFF7F0FA0020FFF7EDFA2020B6
:102C9000FFF7EAFA9C4B1E835E837220FFF7E4FA8B
:102CA0004FEA1820FFF7E0FA5FFA88F0FFF7DCFA46
:102CB000954B1E835E837020FFF7D6FA0020FFF746
:102CC000D3FA2120FFF7D0FA8F4B1E835E83722048
:102CD000FFF7CAFACBF30720FFF7C6FA5FFA8BF0CB
:102CE000FFF7C2FA884B1E835E837020FFF7BCFAA1
:102CF0000020FFF7B9FA2220FFF7B6FA824B1E83B5
:102D00005E837220FFF7B0FA1AE158464146FFF79A
:102D100023FDFFF775FD13E108EB04039BB2D6B961
:102D2000BBF1000F15D1B5F8422E92B293420BD0F1
:102D3000B5F8442E92B29A4206D0B5F8462E92B219
:102D40009A4218BF002706D16E4BD3F8B870BFB2B5
:102D500001E05F46FFE795F8543E13F0FF0F07D000
:102D6000C7F30720FFF780FAF8B2FFF77DFA01E01A
:102D7000AAF8007001344C45CED1DDF81CB095F8AE
:102D8000543E13F0FF0F03D04FF480535E4A138379
:102D9000019B002B00F0CB80069B1BBBB5F8343E9B
:102DA0009BB25B450AD00123194603F5E36205EBAC
:102DB0004202928892B25A450FD100E0002101F5FB
:102DC000E36305EB4303B3F804B01FFA8BFB4D4BF1
:102DD000D3F8B870BFB2012605E00133072BE3D169
:102DE000002600E00026019BC3F1D104A4B295F8AF
:102DF000543E13F0FF0F50D04FF48058424BA3F8CD
:102E00001A807020FFF730FA0020FFF72DFA2020FB
:102E1000FFF72AFA3C4BA3F81880A3F81A80722017
:102E2000FFF722FA200AFFF71FFAE0B2FFF71CFAB9
:102E3000354BA3F81880A3F81A807020FFF714FA16
:102E40000020FFF711FA2120FFF70EFA2E4BA3F80E
:102E50001880A3F81A807220FFF706FACBF3072038
:102E6000FFF702FA5FFA8BF0FFF7FEF9264BA3F8A3
:102E70001880A3F81A807020FFF7F6F90020FFF7FA
:102E8000F3F92220FFF7F0F91F4BA3F81880A3F8FD
:102E90001A807220FFF7E8F905E058462146FFF74F
:102EA0005BFCFFF7ADFC4FF0D108DDF81890D6B908
:102EB000B9F1000F15D1B5F8423E9BB2A3420BD039
:102EC000B5F8443E9BB2A34206D0B5F8463E9BB24D
:102ED000A34218BF002706D10A4BD3F8B870BFB27F
:102EE00001E04F46FFE795F8543E13F0FF0F0FD077
:102EF000C7F30720FFF7B8F9F8B2FFF7B5F909E013
:102F00000C8C0020F4100020001002400000026031
:102F1000AAF800700134A4B24445C8D195F8543ED3
:102F200013F0FF0F03D04FF480530E4A13830BF1BD
:102F3000010B1FFA8BFB049B5B453FF759AE0DE07D
:102F4000661E019BF61AB6B201360024CDF81CB0FD
:102F500033464E46DDF814B09946DDE609B0BDE8CB
:102F6000F08F00BF0010024010B50020FFF7FEFBFD
:102F70000446D248214600F099FD002C00F0A182C1
:102F800049F220339C4240F0F080CD4800F08EFDA5
:102F9000E5204FF40041FFF7C7FB00200121FFF7B8
:102FA000C3FB01204FF48071FFF7BEFB02204FF4FA
:102FB000E061FFF7B9FB032041F23001FFF7B4FBFA
:102FC00004200021FFF7B0FB082040F20221FFF7A8
:102FD000ABFB09200021FFF7A7FB0A200021FFF728
:102FE000A3FB0C200021FFF79FFB0D200021FFF722
:102FF0009BFB0F200021FFF797FB10200021FFF71C
:1030000093FB11200021FFF78FFB12200021FFF717
:103010008BFB13200021FFF787FB102041F2B071DA
:10302000FFF782FB112040F23711FFF77DFB1220E2
:1030300040F23911FFF778FB13204FF4E851FFF706
:1030400073FB29201321FFF76FFB20200021FFF7DE
:103050006BFB21200021FFF767FB30200721FFF7E2
:1030600063FB31200721FFF75FFB32200721FFF7C9
:103070005BFB35200721FFF757FB36200721FFF7C1
:1030800053FB37204FF4E061FFF74EFB38204FF43D
:10309000E061FFF749FB39204FF4E061FFF744FBA3
:1030A0003C204FF4E061FFF73FFB3D204FF4F85127
:1030B000FFF73AFB50200021FFF736FB5120EF21AC
:1030C000FFF732FB52200021FFF72EFB532040F286
:1030D0003F11FFF729FB60204FF42741FFF724FB46
:1030E00061200121FFF720FB6A200021FFF71CFB74
:1030F00080200021FFF718FB81200021FFF714FB3F
:1031000082200021FFF710FB83200021FFF70CFB3A
:1031100084200021FFF708FB85200021FFF704FB36
:1031200090201021FFF700FB92200021FFF7FCFA0E
:1031300093200321FFF7F8FA95204FF48871FFF7E9
:10314000F3FA97200021FFF7EFFA98200021FFF70C
:10315000EBFA032041F23001FFF7E6FA072040F2D4
:103160007311FFF7E1FA002010BD45F208439C42BD
:1031700040F0AA80534800F099FC01200021FFF79D
:10318000D3FA02204FF4E061FFF7CEFA032041F2B8
:103190003001FFF7C9FA04200021FFF7C5FA082023
:1031A00040F20721FFF7C0FA09200021FFF7BCFA1F
:1031B0000A200021FFF7B8FA0C200021FFF7B4FA2B
:1031C0000D200021FFF7B0FA0F200021FFF7ACFA25
:1031D000072040F20111FFF7A7FA102041F2B06179
:1031E000FFF7A2FA11200121FFF79EFA1720012113
:1031F000FFF79AFA12204FF49C71FFF795FA13200B
:103200004FF40061FFF790FA29200921FFF78CFAAB
:103210002A200921FFF788FAA4200021FFF784FA69
:1032200050200021FFF780FA5120EF21FFF77CFAB0
:1032300052200021FFF778FA532040F23F11FFF7A8
:1032400073FA60204FF41C51FFF76EFA61200321DE
:10325000FFF76AFA6A200021FFF766FA8020002152
:10326000FFF762FA81200021FFF75EFA8220002139
:10327000FFF75AFA83200021FFF756FA8420002135
:10328000FFF752FA85200021FFF74EFA9020132114
:10329000FFF74AFA92200021FFF746FA9320032114
:1032A000FFF742FA95204FF48871FFF73DFA0720A7
:1032B00040F27311FFF738FA002010BD24EF020826
:1032C00038EF020850EF020849F225339C4204D03F
:1032D00049F228339C4240F0F6807C4800F0E6FB3F
:1032E000E7201021FFF720FA00200121FFF71CFA48
:1032F00001200021FFF718FA02204FF4E061FFF7E8
:1033000013FA032041F23001FFF70EFA04200021E6
:10331000FFF70AFA082040F20721FFF705FA092013
:103320000021FFF701FA0A200021FFF7FDF90C2028
:103330000121FFF7F9F90D200021FFF7F5F90F2022
:103340000021FFF7F1F910200021FFF7EDF911201E
:103350000721FFF7E9F912200021FFF7E5F9132013
:103360000021FFF7E1F9102041F29051FFF7DCF95D
:10337000112040F22721FFF7D7F912209C21FFF7F7
:10338000D3F913204FF4C851FFF7CEF92920232198
:10339000FFF7CAF92B200E21FFF7C6F920200021E4
:1033A000FFF7C2F921200021FFF7BEF930200721E5
:1033B000FFF7BAF9312040F20771FFF7B5F9322073
:1033C0000621FFF7B1F9352040F20471FFF7ACF99F
:1033D000362041F60471FFF7A7F937200421FFF7E3
:1033E000A3F938200021FFF79FF9392040F2067138
:1033F000FFF79AF93C2040F20171FFF795F93D2063
:103400000F21FFF791F950200021FFF78DF951208E
:10341000EF21FFF789F952200021FFF785F95320AA
:1034200040F23F11FFF780F960204FF42741FFF78A
:103430007BF961200121FFF777F96A200021FFF76E
:1034400073F980200021FFF76FF981200021FFF739
:103450006BF982200021FFF767F983200021FFF735
:1034600063F984200021FFF75FF985200021FFF731
:103470005BF990201021FFF757F992200021FFF708
:1034800053F993200321FFF74FF995204FF48871EA
:10349000FFF74AF997200021FFF746F9982000210D
:1034A000FFF742F9072040F23311FFF73DF92020E2
:1034B0000021FFF739F921200021FFF735F900201D
:1034C00010BD012010BD002010BD00BF68EF020834
:1034D00010B5FEF70FFF01220D4B83F8542EFEF7B7
:1034E00021FFFFF773F8FFF73FFD78B1FEF79CFF70
:1034F0000024074B83F8544EFEF7CCFFFFF778F813
:10350000FFF764F8FFF730FD204610BD10BD00BF87
:103510000C8C0020F0B59DB006460020FFF73EF968
:1035200002AC704D0FCD0FC495E8030044F8040BB6
:10353000217000240094019446203C2102AA4FF6F9
:10354000FF73FFF7E9FA02AD674F0FCF0FC597E89A
:10355000070003C52A70009401943C20502102AA60
:103560004FF6FF73FFF7D8FA0094D923019302A80E
:103570005E492246234600F035FA009401946E20FD
:10358000642102AA4FF6FF73FFF7C6FA02AD584F47
:103590000FCF0FC597E8070085E807000094019456
:1035A0003620C32102AA48F21043FFF7B5FA02AD54
:1035B000504F0FCF0FC597E80F0007C525F8023B06
:1035C0001B0C2B70009401942A20D22102AA48F2ED
:1035D0001043FFF7A1FA02AD474F0FCF0FC597E891
:1035E000070003C52A80009401943C20E12102AA2F
:1035F00048F21043FFF790FA83201BA90BF036FC2A
:103600009DF86C309BB902AC3C4D0FCD0FC495E8D2
:10361000030044F8040B2170002300930193502011
:103620008C2102AA4CF21863FFF776FA12E002AC82
:10363000334D0FCD0FC495E8030044F8040B2170FF
:1036400000230093019350208C2102AA4AF2555383
:10365000FFF762FA2B4B93F8543E13F0FF0F02ACC6
:1036600014BF294D294D0FCD0FC42B6824F8023B00
:103670001B0C23700023009301935820AA2102AA57
:103680004CF21863FFF748FA214BB3F8B0309BB205
:10369000082B11D01E4BB3F8B02002A81D4992B2DE
:1036A00000F0A0F90023009301933C209B2102AA83
:1036B0004CF21863FFF730FA0422174B1A830023E9
:1036C0001B934EB90BE000BF013BFCD11B9B0133A8
:1036D0001B939E4201D802E0104A1346F3E71DB047
:1036E000F0BD00BF80EF020898EF0208B4EF0208B7
:1036F000C4EF0208E0EF020800F002081CF0020824
:1037000034F002080C8C00204CF0020860F0020833
:10371000F410002074F00208000C024040420F0038
:1037200010B40B7843B1024602F8013B141A11F8A9
:10373000013F002BF8D100E0002420465DF8044B47
:10374000704700BF70B504461D46561E092B03D8AE
:10375000002E0BDC00260FE00D4BA3FB05233246A9
:10376000DB08FFF7EFFF0646201805E0501E204457
:1037700004F8011B8442FBD1054BA3FB0523DB08A6
:1037800003EB8303A5EB430330330370701C70BD60
:10379000CDCCCCCC70B50446002B04DA5D42561E6D
:1037A000092D05D82EE01D46013A092B09D824E041
:1037B0001D4BA3FB0523DB0832465B42FFF7EAFF04
:1037C00006E01948A0FB03032046DB08FFF7E2FFF1
:1037D00004441DE01046264606F8011B0138002867
:1037E000FADC013A22EAE272501C0444002B0FDAA0
:1037F0002D2304F8013B01300AE0002AD8BF002045
:1038000006DDE7E7023A002AD8BF0020F0DDE1E755
:10381000054BA3FB0523DB0803EB8303A5EB430365
:1038200030332370013070BDCDCCCCCCF0B583B03B
:1038300004461F46089D561E2B0904D1002E0ADCA3
:10384000034600260DE0009332463B46FFF7EEFFAD
:103850000646231805E0531E034404F8011B9C424E
:10386000FBD105F00F02092A03D8154630351D702B
:1038700009E027B105F00F0537351D7003E005F0AD
:103880000F0557351D70701C03B0F0BD2DE9F04FCA
:1038900083B00F46064608B10021017000254FF0A5
:1038A000010AA8464FF030097CE0252904D00132F6
:1038B00031700135013675E05178252904D1317018
:1038C0000232013501366DE0302919BF541C202128
:1038D000941C494694F800E0AEF13002D2B2092AB5
:1038E0000FD8424602EB82020EEB4202303A02F05F
:1038F000FF0214F801EFAEF13000C0B20928F1D98F
:1039000000E04246501987423CBF7A1BD2B2AEF16A
:10391000580EBEF1200F56D8DFE80EF02B55555546
:10392000555555555555553D1155555555115555E7
:10393000555555555555553555195555210003F1D2
:10394000040B30461B68FFF725FF5B4627E003F1B9
:10395000040B30461B68FFF7F5FE5B461FE003F1E2
:10396000040B1B68009330464346FFF75FFF5B463E
:1039700015E003F1040B1B68009330465346FFF734
:1039800055FF5B460BE003F1040B30461968FFF767
:10399000C7FE5B4603E01A68327004335046621C6F
:1039A00006440544117819B1BD42FFF47EAF05E02D
:1039B000AF4203D900233370284606E0002306F8FF
:1039C000013C681E01E04FF0FF3003B0BDE8F08F0E
:1039D00010B50C4613464FF496712246FFF756FF7A
:1039E00010BD00BF0EB400B582B003AA52F8041B8C
:1039F0000192FFF7EDFF02B05DF804EB03B07047F2
:103A0000054B1B689A688A4204D0DB688B4218BF5A
:103A10004FF0FF30704700BF3806002070B50446F5
:103A2000007868B10E4600253146FFF7E9FFB0F196
:103A3000FF3F07D0013514F8010F0028F4D100E052
:103A40000025284670BD00BFF0B5D5B006468E46AD
:103A500017466C460D4D0FCD0FC40FCD0FC42B680C
:103A6000236009A871463A46FFF7B2FFB0F5967F8A
:103A700006DB074B1B686846D968FFF7CFFFFEE7F8
:103A800009A83146FFF7CAFF55B0F0BD90F0020813
:103A90003806002008B503460A46034909688868C5
:103AA0001946FFF7D1FF08BD380600200FB400B556
:103AB00083B004A951F8040B0191FFF7EBFF03B0A9
:103AC0005DF804EB04B0704708B54FF08040012169
:103AD0000BF008FB88B14FF0804001210BF00EFB8A
:103AE000064B1B6823B1054A1368013B136008BDF0
:103AF0004FF0804000210BF0E7FA08BD6C06002073
:103B000012230B80004870475000002004230B80D4
:103B1000004870476400002008B50A4620B90548EF
:103B2000054903F0A5FB03E00448034903F0A0FBAB
:103B3000014808BDB4F0020868C40020D8F00208AB
:103B400010B50A46034C0448214603F091FB204679
:103B500010BD00BF68C40020FCF0020808B50A468A
:103B600020B90548054903F083FB03E004480349F5
:103B700003F07EFB014808BD10F1020868C4002074
:103B800020F1020808B50A460248034903F070FB19
:103B9000014808BD30F1020868C4002008B50A4693
:103BA0000248034903F064FB014808BD3CF10208E8
:103BB00068C4002010B40168826843681A43C3686F
:103BC0001A4303691A4343691A4383691A43C36951
:103BD0001A43036A1A43436A1A43836A1A43C36A3D
:103BE0001A43036B13434FF0204242F8213083689D
:103BF000082B06D103689B0013441A6842F0400268
:103C00001A6001680131426B946913682343546858
:103C100043EA0413946843EA0423D46843EA044360
:103C2000146943EA0453526943EA02634FF02042A5
:103C300042F82130C36AB3F5804F14D10168826B1A
:103C4000906913680343506843EA0013906843EA9D
:103C50000023106943EA0053526943EA0263064AAB
:103C600042F8213005E002686FF07041024B43F8E2
:103C700022105DF8044B7047040100A039B18000A8
:103C800000F12040036843F00103036070478000A7
:103C900000F120400268024B13400360704700BFF0
:103CA000FEFF0F00F0B500220126032706FA02F3FB
:103CB0000C681C409C4237D10368540007FA04F595
:103CC000ED432B400360036891F804E00EFA04FE14
:103CD0004EEA030303600B79013BDBB2012B16D8DC
:103CE00083681D40856085684B79A3402B438360C2
:103CF00043681FFA82FE06FA0EF523EA05034360C5
:103D000045688B7903FA0EF39BB22B434360C3687B
:103D100095B26D0007FA05F523EA0503C360C5688F
:103D2000CB79A3402B43C3600132102ABED1F0BD32
:103D30000369194214BF01200020704701837047B6
:103D40004183704710B401F007039B00C90800EBE2
:103D50008100046A0F21994024EA01010162016A8D
:103D60009A40114301625DF8044B7047054B1B6993
:103D7000002B05DA034B044A5A6002F188325A607C
:103D8000704700BF003C024023016745024A1369A7
:103D900043F0004313617047003C02400E4BDB6868
:103DA00013F4803F12D10C4BDB6813F0100F0FD1CE
:103DB000094BDB6813F0EF0F0CD1074BDB6803F006
:103DC0000203002B14BF0720082070470120704712
:103DD0000520704706207047003C024000B583B0C4
:103DE00008238DF80730FFF7D9FF8DF807009DF8FD
:103DF0000730DBB2012B08D1FFF7D0FF8DF80700A9
:103E00009DF80730DBB2012BF6D09DF8070003B018
:103E10005DF804FB70B5054641B1012908D00229BF
:103E20000CBF4FF400764FF4407603E0002601E02B
:103E30004FF48076FFF7D2FF08281ED10F4C23697C
:103E400023F44073236123691E432661236923F011
:103E5000F8032361236943F002031D4325612369AD
:103E600043F480332361FFF7B9FF236923F0020392
:103E70002361236923F0F803236170BD003C0240F5
:103E800070B505460E46FFF7A9FF082813D10A4C66
:103E9000236923F440732361236943F4807323610E
:103EA000236943F0010323612E80FFF797FF236905
:103EB00023F00103236170BD003C024000207047E5
:103EC000064B1B680133B3F5006F02D0034A136041
:103ED00002E00022014B1A6000207047A008002079
:103EE0000A4619B1002301339342FCD100207047E8
:103EF00010B5212816D0222825D020284BD12748BC
:103F00004C788A78130443EA04220B781343CA7866
:103F100043EA026303600B7903714B7943718B7938
:103F2000837138E01D4B1A680A701A68120A4A70C9
:103F30005A888A70DA78CA701A790A715A794A717D
:103F40009B798B7127E00C46154B93F8783013F072
:103F5000FF0F0ED10B78032B0BD1114B93F81C31B3
:103F600013F0FF0F14D101220D4B83F878200DF0D0
:103F7000BBFD0B4B93F87830DBB2012B0BD12378D0
:103F80004BB90022064B83F878200DF0ADFD02E01E
:103F9000034B93F87830002010BD00BF9000002044
:103FA000F410002008B50248FFF780FD002008BD8E
:103FB0004430030882B0454AD2F8883043F4700395
:103FC000C2F88830424B1A6842F001021A600021A0
:103FD00099601A6822F0847222F480321A603D4A95
:103FE0005A601A6822F480221A60D9600091019107
:103FF0001A6842F480321A601A46136803F40033D8
:104000000193009B01330093019B1BB9009BB3F507
:10401000A06FF2D12E4B1B6813F4003F14BF012395
:1040200000230193019B012B3AD1294B1A6C42F0DA
:1040300080521A6428490A6842F480420A609A68E9
:104040009A609A6842F400429A609A6842F4A052D8
:104050009A60224A5A601A6842F080721A601A46C0
:10406000136813F0007FFBD01D4B1A6842F4006206
:104070001A601A6842F480521A6040F205621A60AF
:10408000A3F580639A6822F003029A609A6842F06E
:1040900002029A601A46936803F00C03082BFAD1C7
:1040A0000B4B9A6822F400029A600E4AC3F88420EF
:1040B0001A6842F080621A601A46136813F0006FA3
:1040C000FBD0094A014B9A6002B0704700ED00E056
:1040D00000380240103000240070004010544007A7
:1040E000003C02408040007000000108036823F09B
:1040F000010303600023036043608360C3600361C6
:10410000212343613B4B984203D13D22103B9A60EF
:104110007047394B984204D14FF47462283B9A603F
:104120007047364B984204D14FF47412403B9A606A
:104130007047334B984204D14FF07462583B9A60F9
:104140007047304B984203D12F4A703BDA6070477A
:104150002E4B984203D12E4A883BDA6070472D4B94
:10416000984203D12C4AA03BDA6070472B4B98420F
:1041700004D14FF03D52B83BDA607047284B98426B
:1041800003D13D22103B9A607047264B984204D1E0
:104190004FF47462283B9A607047234B984204D1D5
:1041A0004FF47412403B9A607047204B984204D100
:1041B0004FF07462583B9A6070471D4B984203D190
:1041C000114A703BDA6070471A4B984203D1104A8B
:1041D000883BDA607047184B984203D10E4AA03BE7
:1041E000DA607047154B984203D14FF03D52B83B0F
:1041F000DA60704710600240286002404060024070
:1042000058600240706002403D000020886002401B
:10421000400F0020A060024000003D20B860024036
:104220001064024028640240406402405864024026
:104230007064024088640240A0640240B864024096
:1042400010B40268134B1340CC680A6814434A69DF
:1042500014438A691443CA6914430A6A14434A6AB4
:1042600014438A6A14434A6B14438A6B22431343F0
:104270000360436923F007020C6BCB6A23431343AB
:1042800043610B6943604B6883608B68C3605DF872
:10429000044B70473F801CF021B1036843F00103D9
:1042A00003607047036823F001030360704700BF99
:1042B00010B40B4A0B4B0C4CA04294BF184610464E
:1042C00011F0005F14BF4368036821F0F02121F072
:1042D0008211194214BF012000205DF8044B704781
:1042E00000640240006002400F64024010B4094ABA
:1042F000094B0A4CA04294BF1846104611F0005FCB
:1043000021F0F02121F0821114BFC16081605DF8BD
:10431000044B704700640240006002400F6402409A
:1043200011F0800F0ED032B1436943F08003436136
:1043300080290AD17047436923F0800343618029B3
:1043400009D1704780290CD02AB1036801F01E0101
:10435000194301607047036801F01E0123EA01015F
:10436000016070472DE9F84F4FF400100121FDF76F
:10437000C3FC32480021FFF78FFF3048FFF7B6FE3D
:104380002F4C002525602F4B6360A5604023E36020
:104390004FF6FE7BC4F810B065614FF4806AC4F834
:1043A00018A04FF40069C4F81C904FF40056266220
:1043B0004FF48078C4F824804FF40037A762E56298
:1043C00025636563A5631D482146FFF739FF1E4835
:1043D0000221012209F06EFB1C482946FFF75CFF11
:1043E0001A48FFF783FE4FF08063E363184B2364A2
:1043F0006564A564C4F84CB02565C4F854A0C4F83D
:104400005890E665C4F860806766A566E56625672E
:1044100065670E4804F13C01FFF712FF0B481821B5
:104420000122FFF77DFF0B4B1E604FF04020012162
:104430000A4609F03FFBBDE8F88F00BF88600240E4
:10444000700600200C3C0040003C004040600240F0
:104450000C40004000E100E0F8B50F461546194C4D
:10446000A067E167C4F88020A0602261164E304644
:104470002146FFF7E5FE6764E564144D284604F124
:104480003C01FFF7DDFE30460121FFF705FF28461E
:104490000121FFF701FF0E4B9B8B03F480639BB25E
:1044A0001BB90B48012109F0CDFA4FF040239B8B3B
:1044B00003F480639BB223B94FF04020012109F03F
:1044C000C1FAF8BD700600208860024040600240DA
:1044D000003C004010B51D484FF08151FFF7E8FE49
:1044E000C0B11B4BD3F88020C2F34F02A3F8842045
:1044F00012B25400D86F2044C3F88800996F214449
:10450000C3F88C10002300F043FD10484FF0815198
:10451000FFF7ECFE0D480F49FFF7CAFEA0B10C4BA8
:10452000D3F88020C2F34F02A3F88420D86FC3F8D9
:104530008800996FC3F88C1012B2012300F028FD97
:1045400002480449FFF7D2FE10BD00BF40600240A0
:1045500070060020000010102DE9F84F2DED048B9F
:1045600007468846524B1B687BBB00EBD073C3F3F6
:104570004F030FFA83F9B9F1000F23D04D4E4E4D82
:10458000002407EE909AF8EEE78ADFED4C9AB1EE40
:10459000009A07EE904AB8EE678A88EE288A28EEDD
:1045A000298A28EE098AB0EE480A16F08FFBA6EC9D
:1045B000010AB0EE480A16F021FBA5EC010A01340D
:1045C0004C45E6D101223A4B1A60B8F1000F35D1C3
:1045D00007EBD7777C103A4D364F05F5027A28461F
:1045E00039465246234617F037F805F58276DFF84C
:1045F000C8B005F54379304659464A46234617F078
:104600002BF805F58268304639464246234617F0B6
:1046100023F805F21457284659463A46234617F020
:104620001BF8504649462A46234617F01FF94046D4
:1046300039463246234616F0B1FB34E007EBD77714
:104640007F10204D1B4E05F5827A28463146524692
:104650003B4617F001F8A5F58274DFF85CB005F56C
:104660000279204659464A463B4616F0F5FF05F5C5
:1046700043782046314642463B4616F0EDFF05F5AD
:1046800082662846594632463B4616F0E5FF5046BC
:1046900049462A463B4617F0E9F84046314622464D
:1046A0003B4616F07BFBBDEC048BBDE8F88F00BFEA
:1046B00000070020F063002004410020DB0FC94008
:1046C000ECB10020F0B200202DE9F04182B0A34B04
:1046D000D3F800410122C3F80021A14981F8202824
:1046E00093F87F30DBB2052B00F27C81DFE813F01A
:1046F00006009400DC002401650170010A22994B38
:104700009A80964B93F88030DBB2012B05D1954A05
:10471000954BD3602833136164E1904B93F880305C
:10472000DBB2022B07D18F4A8F4B03F15401D160CA
:104730007C33136156E1894B93F88030DBB2032B55
:1047400007D1884A884B03F1A801D160D0331361A7
:1047500048E1824B93F88030DBB2042B08D1814AC8
:10476000814B03F1FC01D16003F59273136139E1D0
:104770007A4B93F88030DBB2052B08D1794A7A4B1B
:1047800003F5A871D16003F5BC7313612AE1734B83
:1047900093F88030DBB2072B08D1724A724B03F5D5
:1047A000D271D16003F5E67313611BE16B4B93F893
:1047B0008030DBB2082B08D16A4A6B4B03F5FC71E1
:1047C000D16003F5087313610CE1644B93F88030FA
:1047D000DBB2092B08D1634A634B03F51371D16037
:1047E00003F51D731361FDE05C4B93F88030DBB281
:1047F0000A2B08D15B4A5C4B03F52871D16003F5A5
:1048000032731361EEE0574A574B03F53D71D160A7
:1048100003F547731361E5E00A22524B9A804F4B30
:1048200093F88130DBB2012B08D14E4A4E4B03F591
:104830005271D16003F55C731361D3E0474B93F879
:104840008130DBB2022B08D1464A474B03F5677132
:10485000D16003F571731361C4E0404B93F881306C
:10486000DBB2042B08D13F4A3F4B03F57C71D1608A
:1048700003F583631361B5E0384B93F88130DBB205
:10488000052B08D1374A384B03F24441D16003F27B
:104890006C431361A6E0334A334B03F59361D16057
:1048A00003F5986313619DE00A222E4B9A802B4BEF
:1048B00093F88230DBB2012B08D12A4A2A4B03F24B
:1048C000EC41D16003F2145313618BE0234B93F856
:1048D0008230DBB2022B08D1224A234B03F5A861B8
:1048E000D16003F5AD6313617CE01C4B93F882301B
:1048F000DBB2042B08D11B4A1B4B03F29451D1604D
:1049000003F2BC5313616DE0144B93F88230DBB2B9
:10491000052B08D1134A144B03F5BD61D16003F593
:10492000C26313615EE00F4A0F4B03F23C61D1603A
:1049300003F26463136155E00A220A4B9A80074B25
:1049400093F88330DBB2012B10D1064A064B03F5F6
:10495000D261D16003F5D763136143E0F410002006
:10496000ECB100200007002050300308A94B93F859
:104970008330DBB2032B08D1A74AA84B03F2E461D2
:10498000D16003F20C7313612CE0A24B93F88330D7
:10499000DBB2042B08D1A04AA04B03F5E761D1603C
:1049A00003F5EC6313611DE09B4A9C4B03F28C7191
:1049B000D16003F2B473136114E0974A0A23938021
:1049C000964B03F5FC61D16003F60803136109E01F
:1049D000914A08239380914B03F63401D16003F68A
:1049E000540313618C4A02F11403D432002143F8BA
:1049F000041B9342FBD1884B03F114029A60854B50
:104A000093F8F830DBB21F2B09D9824B93F8F830BA
:104A1000DBB2802B05D87F4B93F8F85002E060257D
:104A200000E060257E4E35807E4BB3607E4B736028
:104A3000784B93F8F230DBB207EE903AFBEEEF7A68
:104A4000B0EE007A77EE877AF2EE040AB0EE600AF2
:104A5000C7EEA00A17F064FBF7EE007A87EE800A33
:104A600086ED030A714B03F50061002243F8042B25
:104A70008B42FBD16C4B6B4A03F540770020654EAF
:104A800043F8040BD6F80C1101B110600432BB429C
:104A9000F6D14023009362482946624A624B14F0E3
:104AA0006FFA5C4BD3F8F430B3F5007F04D8594B60
:104AB000D3F8F4302F2B03D8C022564BC3F8F42080
:104AC0005B4D40262E80DFF87881C5F80880594F6D
:104AD0006F60504B93F8F930DBB207EE903AF8EE86
:104AE000677AB7EE000A77EE807A9FED537AC7EEC9
:104AF000877A37EE800A17F097FA009628463146F3
:104B000042463B4614F03CFA4C4B03F50061002250
:104B100043F8042B8B42FBD1464B494A03F54076C0
:104B200000203C4D43F8040BD5F80C1101B1106086
:104B30000432B342F6D1374BD3F8FC30B3F5806F73
:104B400004D8344BD3F8FC305F2B03D8C022314B50
:104B5000C3F8F4202F4B93F87F30DBB2052B0ED037
:104B60000422384B83F8642A2B4A2C4B03F6780135
:104B7000C2F8D81003F68803C2F8E4300DE0022230
:104B8000304B83F8642A244A244B03F6C801C2F848
:104B9000D81003F6D803C2F8E4302A4B93F8642AFD
:104BA000D2B207EE902AF8EE677A03F66C22C2EDD5
:104BB000007A93F8642AD1B24FF4A072B2FBF1F2FA
:104BC000C3F8682A93F8641A134A82F8D4100421AF
:104BD000A2F8D6101C4DC2F8DC5093F8641A82F883
:104BE000E01093F8641AC8B2102191FBF0F1A2F81A
:104BF000E2101649C2F8E81000222A600A6000227A
:104C0000C3F8782A83F82028024BC3F8004102B089
:104C1000BDE8F081F41000200007002050300308A8
:104C2000B0A00020F05D002004420020C4A10020BC
:104C3000D4B10020044500200080BB441849002066
:104C4000F0600020ECB10020E0A000205C5A0020C1
:104C500070B52DED028B09F08BFBB94B012283F867
:104C60002028B84A002111605160D1600021916074
:104C700003F624014FF07E520A6003F658210A60C1
:104C8000042283F8642AB04B93F8893013F0FF0FA5
:104C900004D1AE4AA1F12C031A603AE0AA4B93F872
:104CA0008930DBB2022B03D1A94AAA4B1A6030E04B
:104CB000A54B93F88930DBB2032B27D1A24B93F895
:104CC0008A30DBB207EE903AF8EE677AA14CC4ED79
:104CD000007AD4ED007AB3EE0E7A77EE877AC4EDDF
:104CE000007AD4ED007AB2EE040AC7EE807AC4ED01
:104CF000007AD4ED007AF1EE677AC4ED007AD4ED53
:104D0000000A17F00DFA84ED000A02E0924A914B76
:104D10001A608D4ED6ED047AF8EEE77A884D05F5E7
:104D20002364C4ED007AD4ED007AB3EE047A77EE12
:104D3000C77AC4ED007AD4ED007AB2EE048AC7EEE9
:104D4000887AC4ED007AD4ED000AB0EE480A17F074
:104D5000E7F984ED000A96F8E630DBB207EE903A08
:104D6000F8EE677A05F65C24C4ED007AD4ED007A9B
:104D70009FED7A7A77EE877AC4ED007AD4ED007AE7
:104D8000C7EE887AC4ED007AD4ED007AF1EE677A46
:104D9000C4ED007AD4ED000AB0EE480A17F0C0F96D
:104DA00084ED000A05F63C234FF082421A6005F6B6
:104DB00034236B4A1A6005F638256A4B2B6096F847
:104DC0008B30DBB2062B35D896F88B30013307EEEB
:104DD000903AF8EEE77A9FED647A67EE877AA4F668
:104DE0005C2404F63423C3ED007A96F88B3001334B
:104DF00007EE903AF8EEE77A9FED5C7AC7EE277AF5
:104E0000C5ED007A96F88B30581C07EE900AF8EE44
:104E1000E77A17EE900A19F0ABFA02460B4646A164
:104E2000D1E9000119F022FC19F090FD04F5266487
:104E3000206020E0424C04F634234D4A1A6004F608
:104E40003823484A1A60404B93F88B30581C07EEC1
:104E5000900AF8EEE77A17EE900A19F089FA0246FE
:104E60000B4635A1D1E9000119F000FC19F06EFDE7
:104E700004F5266420600EF04BFC0EF01BFC304B5A
:104E800003F528613B4A0A6003F684210A6003F6B1
:104E900088224FF07E51116003F68C2100220A60B7
:104EA00003F698210A6003F529610A6003F694214C
:104EB0000A60002283F821282F4A0A2313802F4BEF
:104EC00003F61811916003F51463D3602C4B03F1C2
:104ED000C001002243F8042B8B42FBD1284A264B09
:104EE0005A60194BD3F8F4302F2B05D9164BD3F851
:104EF000F430B3F5007F03D9C022134BC3F8F4207C
:104F0000FFF7E2FB104B18680021FDF769F81D4B15
:104F100000BF013BFCD1FFF725FA1B481B4980224B
:104F2000FFF79AFA0022064B83F82028BDEC028B8B
:104F300070BD00BFAFF300808716D9CEF753F53FA1
:104F4000ECB10020A0A10020F4100020ACC5273750
:104F500017B7513918BC002082A87B3800000C42DA
:104F600000007A4400C0AA4400007A440000804552
:104F700000903B45F304353FB4A1002050300308B6
:104F8000305D002040420F001C5B0020585900207B
:104F90002DE9F04F2DED0A8B95B00D900E910992F1
:104FA000A14B93F8783013F0FF0F40F08F879F4BA1
:104FB000D3F8EC3013B99C4BDB6973B100249B4BE5
:104FC000C3F8EC4020460E99099D2A4612F0C6FD12
:104FD00020460D992A4612F0C1FD954B93F8648A3C
:104FE0005FFA88F8099A92FBF8F81FFA88F3119390
:104FF0008D4B5B7D13F0FF0F00F023828A4BD3F8BB
:10500000EC30002B40F01D82874B93F87A30DBB2F6
:10501000032B00F01682844B93F87F30DBB2052B14
:1050200000F00F82804B5B7DDBB207EE903AFBEE27
:10503000EF7ACDED0F7A02EBD2735FEA630901F0EC
:10504000DC857A4BD3ED3C8A93F8F47093F8F5A0A5
:10505000784B1D780D9B103300220C92DFF8D08125
:10506000724E9B46CDF840905C463BF8102C13B234
:10507000002BB8BF5B4208EE103AB8EEC88A08F6BB
:105080004423D3ED007A88EE278A06EB4A03A3F87F
:10509000F8200AF102095FFA89F90AF1010A5FFAB8
:1050A0008AFA06EB4A0A3BF80E3CAAF8F83008F5F3
:1050B0002763D3ED007A08F6742393ED007A67EE48
:1050C000A88A68EE077A78EEA77A17EE900A19F0A8
:1050D0004FF9CDE904010F9819F04AF902460B4641
:1050E0000020554918F0E4FFCDE9020118EE100A3E
:1050F00019F03EF9CDE90601DDE90401DDE90223FD
:1051000019F08AF902460B46DDE9060119F014FC94
:1051100018B1002F08BF102711E087B96B1CDBB254
:1051200006EB4502B2F8F8202BF8102C0235EDB250
:1051300006EB4303B3F8F8302BF80E3C06E00023EF
:1051400024F8103C24F80E3C013FFFB205F01E0588
:1051500009F01E0334F80C1C0AB2002AB8BF5242F0
:1051600007EE902AF8EEE77A08F6442292ED007AEC
:1051700006EB4302A2F8F81003F10209134634F8D3
:105180000A2CA3F8FA20C7EE877A17EE900A19F0D6
:10519000EFF8CDE90601DDE904011FA3D3E90023FF
:1051A00019F03AF9CDE90401DDE906011CA3D3E9C0
:1051B000002319F031F902460B46DDE9040118F02D
:1051C00079FF19F0C3FB19F0D3F802460B46CDE97D
:1051D0000A23DDE9020119F01FF902460B46DDE959
:1051E000060119F0A9FB18B1002F08BF102725E010
:1051F00027BB6B1CDBB206EB4502B2F8F82024F8A3
:105200000C2C0235EDB206EB4303B3F8F83024F86A
:105210000A3C1AE0AFF300802B8716D9CEF7EF3F98
:10522000FCA9F1D24D62503FF4100020000700208D
:10523000ECB10020AC00002000802740002324F8BF
:105240000C3C24F80A3C013FFFB205F01E0509F0B2
:105250001E0334F8081C0AB2002AB8BF524207EEF7
:10526000902AF8EEE77A08F6442292ED007A06EBEF
:105270004302A2F8F81003F10209134634F8062C91
:10528000A3F8FA20C7EE877A17EE900A19F070F8A3
:10529000CDE90401DDE90A010FF2E843D3E9002377
:1052A00019F0BAF8CDE90601DDE904010FF2DC439B
:1052B000D3E9002319F0B0F802460B46DDE90601F8
:1052C00018F0F8FE19F042FB19F052F802460B46AE
:1052D000CDE90623DDE9020119F09EF802460B46EE
:1052E000DDE9040119F028FB18B1002F08BF1027D1
:1052F00011E087B96B1CDBB206EB4502B2F8F8206F
:1053000024F8082C0235EDB206EB4303B3F8F8306D
:1053100024F8063C06E0002324F8083C24F8063C68
:10532000013FFFB205F01E0509F01E0334F8041C0E
:105330000AB2002AB8BF524207EE902AF8EEE77A86
:1053400008F6442292ED007A06EB4302A2F8F81028
:1053500003F10209134634F8022CA3F8FA20C7EE31
:10536000877A17EE900A19F003F8CDE90401DDE918
:1053700006010FF21043D3E9002319F04DF8CDE9EF
:105380000601DDE904010FF20443D3E9002319F01B
:1053900043F802460B46DDE9060118F08BFE19F0D2
:1053A000D5FA08EE900A18F0E3FF02460B46DDE955
:1053B000020119F031F802460B46DDE9040119F04B
:1053C000BBFA18B1002F08BF102711E087B96B1C7A
:1053D000DBB206EB4502B2F8F82024F8042C0235C3
:1053E000EDB206EB4303B3F8F83024F8023C06E0D4
:1053F000002324F8043C24F8023C013FFFB205F0EE
:105400001E0509F01E0A0C9B04330C930BF1100BC4
:10541000109A9342FFF428AED34B83F8F470D34A2A
:10542000157083F8F5A0C3ED3C8A0022C3F83C2137
:105430000022C3F84021099B03EBD3734FEA6309B1
:105440000CE0C94B0022C3F83C210022C3F84021E4
:10545000099B03EBD3735FEA630961D00D9A0432B1
:105460000021C34B0E460125C24C93F8480E10F0A4
:10547000FF0F22D1D3F82C0E32F8027C143003EB4C
:1054800040008780D3F82C0E0130C3F82C0ED3F8DF
:105490002C0E32F8047C143003EB40008780D3F8E4
:1054A0002C0E0130C3F82C0ED3F82C0EB0F5007F73
:1054B00024BFC3F82C6E83F8485E104632F9047C92
:1054C000B7F5806F0FDDC4F8505A32F9047CB7F598
:1054D000006F08DDC4F84C5A32F9047CB7F5805FE0
:1054E000C8BFC4F8485A30F9047C07EE907AF8EE49
:1054F000E77A04EB8107C7ED007A30F9020C07EE7A
:10550000900AF8EEE77A01F1400004EB8000C0ED6C
:10551000017A013104324945A7D1934BC3F8409138
:10552000944C04F63C27D7ED007A934D95ED130A81
:1055300027EE800A8C4E86ED510A204621464A46C7
:1055400015F050FFD7ED007A95ED140A27EE800A8A
:1055500086ED510A04F5827108464A4615F042FF6D
:1055600095F82C3113F0FF0F09D095F82C31DBB2F0
:10557000012B09980CBF01210021FEF7EDFF7D4CA6
:105580007E48214622464B4614F04EFC04F58272BA
:105590007B4811464B4614F047FC774B93F87A3022
:1055A000DBB2042B00F20E81DFE803F0030D172FAE
:1055B0000300704A104602F5827102F502724B46F2
:1055C00016F054F907E16B4A104602F5827102F5B4
:1055D00002724B4615F0E2FBFDE0674BD3F8283131
:1055E0004BB9644A104602F5827102F502724B46CD
:1055F00016F03CF9EFE05F4A104602F5827102F5C1
:1056000002724B4615F0CAFBE5E05A4C04F50275F0
:10561000204621462A464B4616F01EF804F58271B4
:1056200004F54374084622464B4616F015F8284602
:1056300021462A464B4616F019F900224A4BC3F878
:105640004021B9F1000F00F0B1801446A5F50276B3
:1056500000271D4604F1820306EB8303D3ED007A95
:10566000F5EEC07AF1EE10FA10DDB1EEE70AB4EE15
:10567000400AF1EE10FA03D0B0EE670A16F01EFFF2
:10568000823406EB840484ED000A03E0823406EBE6
:1056900084042760D5F840315C1CC5F84041833351
:1056A00006EB8303D3ED007AF5EEC07AF1EE10FA43
:1056B00010DDB1EEE70AB4EE400AF1EE10FA03D0C5
:1056C000B0EE670A16F0FAFE823406EB840484ED2D
:1056D000000A03E0823406EB84042760D5F84031E9
:1056E0005C1CC5F84041833306EB8303D3ED007A9D
:1056F000F5EEC07AF1EE10FA10DDB1EEE70AB4EE85
:10570000400AF1EE10FA03D0B0EE670A16F0D6FEAA
:10571000823406EB840484ED000A03E0823406EB55
:1057200084042760D5F840315C1CC5F840418333C0
:1057300006EB8303D3ED007AF5EEC07AF1EE10FAB2
:1057400028DDB1EEE70AB4EE400AF1EE10FA03D01C
:10575000B0EE670A16F0B2FE823406EB840484EDE4
:10576000000A1BE0AFF3008000070020AC0000201F
:105770000C8C0020ECB10020F4100020D4A00020FC
:10578000245D00202B8716D9CEF7EF3FFCA9F1D27C
:105790004D62503F823406EB84042760D5F84041C7
:1057A0000134C5F840414C45FFF454AFBA4849466E
:1057B00013AA12F09FFBDDED137A77EEA77ACDEDF9
:1057C000137A08E0B54A104602F5827102F50272BA
:1057D0004B4616F04BF8B04CB148214622464B469A
:1057E00014F06EFD94F8183613F0FF0F4CD1AD4B4A
:1057F00093F8F03013F0040F46D0AA4B93F87A30A8
:10580000DBB2022B40D0A74BD3F80031002B3BD1A9
:10581000BDF9444004EBD47464109F4EA24DD5F8FA
:105820004811A24F304607EB8101224612F008FAD8
:10583000D5F84C21009601949D48314607EB820231
:105840009C4B13F0B9FBD5F848312344C5F84831D7
:105850001C44C5F84C41934AD2F8FC20013A9342CB
:1058600005D3904AD2F8FC209B1AC5F848318D4BDD
:10587000D3F8FC30013B9C4206D38A4BD3F8FC3072
:10588000E41A894BC3F84C41864B93F8F03013F07F
:10589000010F72D0834B93F8F03013F0020F6CD1EC
:1058A0007E4B93F8203813F0FF0F66D17D4BD3F871
:1058B0000031002B61D1BDF9445005EBD5756D1059
:1058C000754C794FD7F850117B4E204606EB81017D
:1058D0002A4612F0B5F9D7F85421784B0093019578
:1058E0007748214606EB8202234613F065FBA4F5B8
:1058F0000274D4ED827AF0EEE77AFCEEE77A714B2F
:1059000017EE902A03FB02F353B9D4F8783AB3F5B3
:10591000006F09D2D4F8783A0133C4F8783A03E03A
:1059200000225E4BC3F8782A5C4BD3F8082203F6BA
:105930007C231A605C4AD2F850312B44C2F85031B3
:105940001D44C2F85451574AD2F8F420013A934208
:1059500006D3544AD2F8F4209B1A534AC2F8503165
:10596000504BD3F8F430013B9D4206D34D4BD3F856
:10597000F430ED1A4C4BC3F85451484B93F820388F
:1059800013F0FF0F0FD1474B93F87F30DBB2052B9D
:1059900009D0414ABDF9443003EBD3734A4811465C
:1059A0005B1013F019FEBDF9448008EBD8784FEA7C
:1059B0006808394D3C4C2846414604F59E7212ABAE
:1059C00012F0EEFB2846414604F5AC7212AB12F021
:1059D000E3F9D4ED567AF0EEE77AC4ED567A94ED19
:1059E0004F7AF4EEC77AF1EE10FAC4BF2346C3ED46
:1059F0004F7A00222C4BC3F84021B8F1000F00F081
:105A0000C4809DED13BAD3ED4FAA93ED57AA154666
:105A1000244E224C9FED1C9B9FED1D8BDFF8ACB0FC
:105A200096F88930DBB2042B00F0988096F87A3033
:105A3000DBB2032B04F6240393ED00AA0CBF2AEE7D
:105A40000BAA2AEE2AAA04F63423D3ED007AF4EE48
:105A5000CA7AF1EE10FA3BDD04F6240393ED006AF6
:105A600004F62C22D2ED007A04F66C22D2ED006A04
:105A700093ED007A66EE277A67EEA67A77EE877A5C
:105A8000C3ED007A47E000BF4C37894160E5A03F95
:105A90007B14AE47E17A943FF4B30020ECB10020D0
:105AA000D4070020F410002000070020184900202F
:105AB000D4B1002014480020C4A10020205C0020A4
:105AC000B0A0002080969800040700200AD7A33CCD
:105AD00004F62407D7F800A0386818F049FCCDE98F
